{
	"data": {
		"bytecode": {
			"linkReferences": {},
			"object": "600280546001600160a01b0319908116739ee20a74588a1d89e028a2be4ccf842ac93521119081178355600380548316909117905560048054821673ec3cfed9ca0cd7bd9d280f0e804431b82c64e2221790556005805482167327a9627f6757958df512fa03dd7cf66e5f9a833317815560068054831673e4438a02327c7cab44f94c7c9f87438b05d5e4441790556007805490921673779ce1533064b35d992c6670b6c29c2fe0c7d5551790915561012060405260286080908152601e60a052601460c052600860e05261010092909252620000df91600e916200015e565b50680ad78ebc5ac6200000601555670de0b6b3a7640000601655601e6017556801c9f78d2893e4000060185534801562000117575f80fd5b505f80546001600160a01b031916339081178255604051909182917f8be0079c531659141344cd1fd0a4f28419497f9722a3daafe3b4186f6b6457e0908290a350620001bc565b826005810192821562000194579160200282015b8281111562000194578251829060ff1690559160200191906001019062000172565b50620001a2929150620001a6565b5090565b5b80821115620001a2575f8155600101620001a7565b61225380620001ca5f395ff3fe608060405234801561000f575f80fd5b5060043610610297575f3560e01c806381bac14f11610161578063b27c9eb8116100ca578063c8430d7b11610084578063c8430d7b14610676578063c9b6b48514610689578063de4b32621461069c578063e38e91f9146106af578063e5711e8b146106c2578063f2fde38b146106d5575f80fd5b8063b27c9eb8146105fa578063bd0a2e1e1461060d578063c54e44eb14610620578063c5a065c41461063b578063c63a695c1461065a578063c7876ea41461066d575f80fd5b8063926427441161011b578063926427441461059d578063959028cd146105b05780639b2cb5d8146105c3578063a694fc3a146105cc578063aee942c3146105df578063b1035448146105f2575f80fd5b806381bac14f1461052e57806382bfefc814610541578063849bbeb014610554578063897b0637146105675780638a3d90751461057a5780638da5cb5b1461058d575f80fd5b806347de8a901161020357806363034ef1116101bd57806363034ef1146104dc578063715018a6146104ef578063771dc86a146104f757806378e979251461050a5780637d9a7a4c146105135780637ff9b59614610526575f80fd5b806347de8a90146104735780634b45e5611461047b578063513076f0146104845780635960e6e2146104975780635cb628fa146104b657806360a62f35146104c9575f80fd5b80631c10cddb116102545780631c10cddb146103dc57806330fb0bd5146103ef57806332fe7b261461041a5780633cae51dc146104355780633e0a322d146104585780634451d89f1461046b575f80fd5b806302c3a9d01461029b578063055567f3146102c857806306f837d3146102e8578063099a04e5146102ff5780630d39fc81146103145780631959a0021461031d575b5f80fd5b6102ae6102a9366004611d54565b6106e8565b604080519283526020830191909152015b60405180910390f35b6102db6102d6366004611d7c565b610715565b6040516102bf9190611d95565b6102f160175481565b6040519081526020016102bf565b61031261030d366004611d54565b61078c565b005b6102f160185481565b61038861032b366004611d7c565b600160208190525f918252604090912080549181015460028201546003830154600484015460058501546006860154600787015460088801546009909801546001600160a01b03909916989697959694959394929391929091908a565b604080516001600160a01b03909b168b5260208b0199909952978901969096526060880194909452608087019290925260a086015260c085015260e0840152610100830152610120820152610140016102bf565b6102ae6103ea366004611d54565b61081e565b600454610402906001600160a01b031681565b6040516001600160a01b0390911681526020016102bf565b610402739ac64cc6e4415144c455bd8e4837fea55603e5c381565b610448610443366004611d7c565b610837565b60405190151581526020016102bf565b610312610466366004611dd2565b610886565b6103126108b4565b610312610b09565b6102f160145481565b600554610402906001600160a01b031681565b6102f16104a5366004611d7c565b601c6020525f908152604090205481565b600654610402906001600160a01b031681565b6103126104d7366004611de9565b610d03565b600754610402906001600160a01b031681565b610312610d5a565b6102f1610505366004611dd2565b610dcb565b6102f160135481565b610312610521366004611dd2565b610de1565b6102f1610e0f565b61031261053c366004611d7c565b610f67565b600854610402906001600160a01b031681565b6102db610562366004611d7c565b610fd0565b610312610575366004611dd2565b611023565b610312610588366004611e1a565b611051565b5f546001600160a01b0316610402565b6103126105ab366004611dd2565b6110b9565b6103126105be366004611ec8565b61124b565b6102f160155481565b6103126105da366004611dd2565b611285565b6102f16105ed366004611d7c565b61173e565b6102f1611785565b600354610402906001600160a01b031681565b6102f161061b366004611d7c565b6117b2565b610402730fb3c077479113df18f9f51dc282b09bb046100081565b6102f1610649366004611d7c565b601a6020525f908152604090205481565b600254610402906001600160a01b031681565b6102f160165481565b610312610684366004611f24565b611858565b610402610697366004611dd2565b6118a9565b6103126106aa366004611dd2565b6118c8565b6103126106bd366004611dd2565b6118f6565b6103126106d0366004611f9a565b611924565b6103126106e3366004611d7c565b6119bd565b601b602052815f5260405f2081600a8110610701575f80fd5b600202018054600190910154909250905082565b61071d611c6b565b6001600160a01b0382165f90815260196020526040808220815161014081019092529091600a90835b82821015610781578382600202016040518060400160405290815f820154815260200160018201548152505081526020019060010190610746565b505050509050919050565b5f546001600160a01b031633146107be5760405162461bcd60e51b81526004016107b590611fd3565b60405180910390fd5b5f826001600160a01b0316826040515f6040518083038185875af1925050503d805f8114610807576040519150601f19603f3d011682016040523d82523d5f602084013e61080c565b606091505b5050905080610819575f80fd5b505050565b6019602052815f5260405f2081600a8110610701575f80fd5b6002545f906001600160a01b038381169116148061086d57506001600160a01b038281165f908152600160205260409020541615155b1561087a57506001919050565b505f919050565b919050565b5f546001600160a01b031633146108af5760405162461bcd60e51b81526004016107b590611fd3565b601355565b3332146108d35760405162461bcd60e51b81526004016107b590612008565b333b156108de575f80fd5b335f9081526001602052604090206005810154806108fa575f80fd5b5f6005838101919091555460405163a9059cbb60e01b81526001600160a01b03909116600482015260248101829052730fb3c077479113df18f9f51dc282b09bb04610009063a9059cbb906044016020604051808303815f875af1158015610964573d5f803e3d5ffd5b505050506040513d601f19601f820116820180604052508101906109889190612032565b505f8260060154836002015460036109a09190612065565b6109aa9190612082565b9050808210156109d25781836006015f8282546109c79190612095565b909155506109fd9050565b335f908152600160205260408120600281018290556004810182905560058101829055600601559050805b5f610a06610e0f565b610a1884670de0b6b3a7640000612065565b610a2291906120bc565b90505f606460175483610a359190612065565b610a3f91906120bc565b6008546040516308934a5f60e31b8152336004820152602481018590529192506001600160a01b03169063449a52f8906044015f604051808303815f87803b158015610a89575f80fd5b505af1158015610a9b573d5f803e3d5ffd5b50506008546006546040516308934a5f60e31b81526001600160a01b039182166004820152602481018690529116925063449a52f891506044015f604051808303815f87803b158015610aec575f80fd5b505af1158015610afe573d5f803e3d5ffd5b505050505050505050565b333214610b285760405162461bcd60e51b81526004016107b590612008565b333b15610b33575f80fd5b335f908152600160205260409020600481015480610b4f575f80fd5b5f6004830181905560068301546002840154610b6c906003612065565b610b769190612082565b905080821015610b9e5781836006015f828254610b939190612095565b90915550610bc99050565b335f908152600160205260408120600281018290556004810182905560058101829055600601559050805b5f6064610bd784605f612065565b610be191906120bc565b60405163a9059cbb60e01b815233600482015260248101829052909150730fb3c077479113df18f9f51dc282b09bb04610009063a9059cbb906044016020604051808303815f875af1158015610c39573d5f803e3d5ffd5b505050506040513d601f19601f82011682018060405250810190610c5d9190612032565b50600454730fb3c077479113df18f9f51dc282b09bb04610009063a9059cbb906001600160a01b0316610c908487612082565b6040516001600160e01b031960e085901b1681526001600160a01b03909216600483015260248201526044016020604051808303815f875af1158015610cd8573d5f803e3d5ffd5b505050506040513d601f19601f82011682018060405250810190610cfc9190612032565b5050505050565b5f546001600160a01b03163314610d2c5760405162461bcd60e51b81526004016107b590611fd3565b600680546001600160a01b039384166001600160a01b03199182161790915560078054929093169116179055565b5f546001600160a01b03163314610d835760405162461bcd60e51b81526004016107b590611fd3565b5f80546040516001600160a01b03909116907f8be0079c531659141344cd1fd0a4f28419497f9722a3daafe3b4186f6b6457e0908390a35f80546001600160a01b0319169055565b600e8160058110610dda575f80fd5b0154905081565b5f546001600160a01b03163314610e0a5760405162461bcd60e51b81526004016107b590611fd3565b601855565b6016545f9015610e20575060165490565b6040805160028082526060820183525f92602083019080368337505060085482519293506001600160a01b0316918391505f90610e5f57610e5f6120cf565b60200260200101906001600160a01b031690816001600160a01b031681525050730fb3c077479113df18f9f51dc282b09bb046100081600181518110610ea757610ea76120cf565b6001600160a01b039092166020928302919091019091015260405163d06ca61f60e01b81525f90739ac64cc6e4415144c455bd8e4837fea55603e5c39063d06ca61f90610f0290670de0b6b3a76400009086906004016120e3565b5f60405180830381865afa158015610f1c573d5f803e3d5ffd5b505050506040513d5f823e601f3d908101601f19168201604052610f43919081019061213a565b905080600181518110610f5857610f586120cf565b60200260200101519250505090565b610f7081610837565b610f78575f80fd5b6002546001600160a01b03163303610f8e575f80fd5b335f90815260016020526040902080546001600160a01b031615610fb0575f80fd5b80546001600160a01b0319166001600160a01b0392909216919091179055565b610fd8611c6b565b6001600160a01b0382165f908152601b602090815260409182902082516101808101909352805461014084019081526001808301546101608601529084529091600a91908401610746565b5f546001600160a01b0316331461104c5760405162461bcd60e51b81526004016107b590611fd3565b601555565b5f546001600160a01b0316331461107a5760405162461bcd60e51b81526004016107b590611fd3565b600380546001600160a01b039485166001600160a01b031991821617909155600480549385169382169390931790925560058054919093169116179055565b3332146110d85760405162461bcd60e51b81526004016107b590612008565b333b156110e3575f80fd5b5f6110ec611785565b6110f69083612065565b6008546007546040516323b872dd60e01b81523360048201526001600160a01b0391821660248201526044810184905292935016906323b872dd906064016020604051808303815f875af1158015611150573d5f803e3d5ffd5b505050506040513d601f19601f820116820180604052508101906111749190612032565b5061117f3383611aa4565b335f90815260016020526040812060080180548492906111a0908490612095565b90915550506040805180820182524281526020808201859052335f908152601c825283812054601b90925292909220909190829082600a81106111e5576111e56120cf565b825160029190910291909101908155602091820151600190910155335f908152601c9091526040812080549161121a836121db565b9091555050335f908152601c6020526040902054600a1161124557335f908152601c60205260408120555b50505050565b5f546001600160a01b031633146112745760405162461bcd60e51b81526004016107b590611fd3565b611281600e826005611ca4565b5050565b3332146112a45760405162461bcd60e51b81526004016107b590612008565b333b156112af575f80fd5b5f601354116112bc575f80fd5b60155481101580156112d857506015546112d690826121f3565b155b6112e0575f80fd5b335f90815260016020526040902080546001600160a01b031680611302575f80fd5b600282015415611310575f80fd5b6040516323b872dd60e01b815233600482015230602482015260448101849052730fb3c077479113df18f9f51dc282b09bb0461000906323b872dd906064016020604051808303815f875af115801561136b573d5f803e3d5ffd5b505050506040513d601f19601f8201168201806040525081019061138f9190612032565b506001600160a01b0381165f90815260016020908152604080832033808552600a820190935292205490919060ff166113fc576001600160a01b0382165f908152600a820160205260408120805460ff19166001179055600982018054916113f6836121db565b91905055505b825f8061140a600a896120bc565b6004805460405163a9059cbb60e01b81526001600160a01b039091169181019190915260248101829052909150730fb3c077479113df18f9f51dc282b09bb04610009063a9059cbb906044016020604051808303815f875af1158015611472573d5f803e3d5ffd5b505050506040513d601f19601f820116820180604052508101906114969190612032565b505f5b60098160ff161015611589576001600160a01b03841615611589576001600160a01b0384165f9081526001602081905260408220908101805491928c926114e1908490612095565b90915550506002810154156115755760646114fd84603c612065565b61150791906120bc565b816004015f8282546115199190612095565b909155506064905061152c846028612065565b61153691906120bc565b816005015f8282546115489190612095565b9250508190555082816003015f8282546115629190612095565b9091555061157290508385612095565b93505b546001600160a01b03169350600101611499565b505f8260646115998b605a612065565b6115a391906120bc565b6115ad9190612082565b9050801561163d5760025460405163a9059cbb60e01b81526001600160a01b03909116600482015260248101829052730fb3c077479113df18f9f51dc282b09bb04610009063a9059cbb906044016020604051808303815f875af1158015611617573d5f803e3d5ffd5b505050506040513d601f19601f8201168201806040525081019061163b9190612032565b505b8888600201819055508860145f8282546116579190612095565b90915550506015545f9061166b908b6120bc565b905080896007015f8282546116809190612095565b9091555061169090503382611aa4565b60408051808201825242815260208082018d9052335f908152601a825283812054601990925292909220909190829082600a81106116d0576116d06120cf565b825160029190910291909101908155602091820151600190910155335f908152601a90915260408120805491611705836121db565b9091555050335f908152601a6020526040902054600a1161173057335f908152601a60205260408120555b505050505050505050505050565b6001600160a01b0381165f90815260016020526040812061175d610e0f565b600582015461177490670de0b6b3a7640000612065565b61177e91906120bc565b9392505050565b5f61178e610e0f565b6018546117a390670de0b6b3a7640000612065565b6117ad91906120bc565b905090565b5f80805b600581101561185157600981600581106117d2576117d26120cf565b01546040516370a0823160e01b81526001600160a01b038681166004830152909116906370a0823190602401602060405180830381865afa158015611819573d5f803e3d5ffd5b505050506040513d601f19601f8201168201806040525081019061183d9190612206565b6118479083612095565b91506001016117b6565b5092915050565b5f546001600160a01b031633146118815760405162461bcd60e51b81526004016107b590611fd3565b600880546001600160a01b0319166001600160a01b0384161790556108196009826005611ce2565b600981600581106118b8575f80fd5b01546001600160a01b0316905081565b5f546001600160a01b031633146118f15760405162461bcd60e51b81526004016107b590611fd3565b601655565b5f546001600160a01b0316331461191f5760405162461bcd60e51b81526004016107b590611fd3565b601755565b5f546001600160a01b0316331461194d5760405162461bcd60e51b81526004016107b590611fd3565b60405163a9059cbb60e01b81526001600160a01b0383811660048301526024820183905284169063a9059cbb906044016020604051808303815f875af1158015611999573d5f803e3d5ffd5b505050506040513d601f19601f820116820180604052508101906112459190612032565b5f546001600160a01b031633146119e65760405162461bcd60e51b81526004016107b590611fd3565b6001600160a01b038116611a4b5760405162461bcd60e51b815260206004820152602660248201527f4f776e61626c653a206e6577206f776e657220697320746865207a65726f206160448201526564647265737360d01b60648201526084016107b5565b5f80546040516001600160a01b03808516939216917f8be0079c531659141344cd1fd0a4f28419497f9722a3daafe3b4186f6b6457e091a35f80546001600160a01b0319166001600160a01b0392909216919091179055565b5f5b81811015610819575f42433384604051602001611aee9493929190938452602084019290925260601b6bffffffffffffffffffffffff19166040830152605482015260740190565b60408051601f1981840301815291905280516020909101209050611b136064826121f3565b611b1e906001612095565b6009546012549192506001600160a01b031690611b3c906064612082565b821115611b5a57600960045b01546001600160a01b03169050611c07565b601154601254611b6a9190612095565b611b75906064612082565b821115611b855760096003611b48565b601054601154601254611b989190612095565b611ba29190612095565b611bad906064612082565b821115611bbd5760096002611b48565b600f54601054601154601254611bd39190612095565b611bdd9190612095565b611be79190612095565b611bf2906064612082565b821115611c075750600a546001600160a01b03165b60405163755edd1760e01b81526001600160a01b03868116600483015282169063755edd17906024015f604051808303815f87803b158015611c47575f80fd5b505af1158015611c59573d5f803e3d5ffd5b505060019094019350611aa692505050565b604051806101400160405280600a905b604080518082019091525f8082526020820152815260200190600190039081611c7b5790505090565b8260058101928215611cd2579160200282015b82811115611cd2578251825591602001919060010190611cb7565b50611cde929150611d2a565b5090565b8260058101928215611cd2579160200282015b82811115611cd257825182546001600160a01b0319166001600160a01b03909116178255602090920191600190910190611cf5565b5b80821115611cde575f8155600101611d2b565b80356001600160a01b0381168114610881575f80fd5b5f8060408385031215611d65575f80fd5b611d6e83611d3e565b946020939093013593505050565b5f60208284031215611d8c575f80fd5b61177e82611d3e565b610280810181835f5b600a811015611dc9578151805184526020908101518185015260409093019290910190600101611d9e565b50505092915050565b5f60208284031215611de2575f80fd5b5035919050565b5f8060408385031215611dfa575f80fd5b611e0383611d3e565b9150611e1160208401611d3e565b90509250929050565b5f805f60608486031215611e2c575f80fd5b611e3584611d3e565b9250611e4360208501611d3e565b9150611e5160408501611d3e565b90509250925092565b634e487b7160e01b5f52604160045260245ffd5b60405160a0810167ffffffffffffffff81118282101715611e9157611e91611e5a565b60405290565b604051601f8201601f1916810167ffffffffffffffff81118282101715611ec057611ec0611e5a565b604052919050565b5f60a08284031215611ed8575f80fd5b82601f830112611ee6575f80fd5b611eee611e6e565b8060a0840185811115611eff575f80fd5b845b81811015611f19578035845260209384019301611f01565b509095945050505050565b5f8060c08385031215611f35575f80fd5b611f3e83611d3e565b9150602084603f850112611f50575f80fd5b611f58611e6e565b8060c0860187811115611f69575f80fd5b602087015b81811015611f8c57611f7f81611d3e565b8452928401928401611f6e565b509497909650945050505050565b5f805f60608486031215611fac575f80fd5b611fb584611d3e565b9250611fc360208501611d3e565b9150604084013590509250925092565b6020808252818101527f4f776e61626c653a2063616c6c6572206973206e6f7420746865206f776e6572604082015260600190565b60208082526010908201526f13db9b1e481153d048185b1b1bddd95960821b604082015260600190565b5f60208284031215612042575f80fd5b8151801515811461177e575f80fd5b634e487b7160e01b5f52601160045260245ffd5b808202811582820484141761207c5761207c612051565b92915050565b8181038181111561207c5761207c612051565b8082018082111561207c5761207c612051565b634e487b7160e01b5f52601260045260245ffd5b5f826120ca576120ca6120a8565b500490565b634e487b7160e01b5f52603260045260245ffd5b5f604082018483526020604060208501528185518084526060860191506020870193505f5b8181101561212d5784516001600160a01b031683529383019391830191600101612108565b5090979650505050505050565b5f602080838503121561214b575f80fd5b825167ffffffffffffffff80821115612162575f80fd5b818501915085601f830112612175575f80fd5b81518181111561218757612187611e5a565b8060051b9150612198848301611e97565b81815291830184019184810190888411156121b1575f80fd5b938501935b838510156121cf578451825293850193908501906121b6565b98975050505050505050565b5f600182016121ec576121ec612051565b5060010190565b5f82612201576122016120a8565b500690565b5f60208284031215612216575f80fd5b505191905056fea2646970667358221220e0f22a22562ce324bebce4d1263229c534842626bbda17686555b4757fcfd8b564736f6c63430008180033",
			"opcodes": "PUSH1 0x2 DUP1 SLOAD PUSH1 0x1 PUSH1 0x1 PUSH1 0xA0 SHL SUB NOT SWAP1 DUP2 AND PUSH20 0x9EE20A74588A1D89E028A2BE4CCF842AC9352111 SWAP1 DUP2 OR DUP4 SSTORE PUSH1 0x3 DUP1 SLOAD DUP4 AND SWAP1 SWAP2 OR SWAP1 SSTORE PUSH1 0x4 DUP1 SLOAD DUP3 AND PUSH20 0xEC3CFED9CA0CD7BD9D280F0E804431B82C64E222 OR SWAP1 SSTORE PUSH1 0x5 DUP1 SLOAD DUP3 AND PUSH20 0x27A9627F6757958DF512FA03DD7CF66E5F9A8333 OR DUP2 SSTORE PUSH1 0x6 DUP1 SLOAD DUP4 AND PUSH20 0xE4438A02327C7CAB44F94C7C9F87438B05D5E444 OR SWAP1 SSTORE PUSH1 0x7 DUP1 SLOAD SWAP1 SWAP3 AND PUSH20 0x779CE1533064B35D992C6670B6C29C2FE0C7D555 OR SWAP1 SWAP2 SSTORE PUSH2 0x120 PUSH1 0x40 MSTORE PUSH1 0x28 PUSH1 0x80 SWAP1 DUP2 MSTORE PUSH1 0x1E PUSH1 0xA0 MSTORE PUSH1 0x14 PUSH1 0xC0 MSTORE PUSH1 0x8 PUSH1 0xE0 MSTORE PUSH2 0x100 SWAP3 SWAP1 SWAP3 MSTORE PUSH3 0xDF SWAP2 PUSH1 0xE SWAP2 PUSH3 0x15E JUMP JUMPDEST POP PUSH9 0xAD78EBC5AC6200000 PUSH1 0x15 SSTORE PUSH8 0xDE0B6B3A7640000 PUSH1 0x16 SSTORE PUSH1 0x1E PUSH1 0x17 SSTORE PUSH9 0x1C9F78D2893E40000 PUSH1 0x18 SSTORE CALLVALUE DUP1 ISZERO PUSH3 0x117 JUMPI PUSH0 DUP1 REVERT JUMPDEST POP PUSH0 DUP1 SLOAD PUSH1 0x1 PUSH1 0x1 PUSH1 0xA0 SHL SUB NOT AND CALLER SWAP1 DUP2 OR DUP3 SSTORE PUSH1 0x40 MLOAD SWAP1 SWAP2 DUP3 SWAP2 PUSH32 0x8BE0079C531659141344CD1FD0A4F28419497F9722A3DAAFE3B4186F6B6457E0 SWAP1 DUP3 SWAP1 LOG3 POP PUSH3 0x1BC JUMP JUMPDEST DUP3 PUSH1 0x5 DUP2 ADD SWAP3 DUP3 ISZERO PUSH3 0x194 JUMPI SWAP2 PUSH1 0x20 MUL DUP3 ADD JUMPDEST DUP3 DUP2 GT ISZERO PUSH3 0x194 JUMPI DUP3 MLOAD DUP3 SWAP1 PUSH1 0xFF AND SWAP1 SSTORE SWAP2 PUSH1 0x20 ADD SWAP2 SWAP1 PUSH1 0x1 ADD SWAP1 PUSH3 0x172 JUMP JUMPDEST POP PUSH3 0x1A2 SWAP3 SWAP2 POP PUSH3 0x1A6 JUMP JUMPDEST POP SWAP1 JUMP JUMPDEST JUMPDEST DUP1 DUP3 GT ISZERO PUSH3 0x1A2 JUMPI PUSH0 DUP2 SSTORE PUSH1 0x1 ADD PUSH3 0x1A7 JUMP JUMPDEST PUSH2 0x2253 DUP1 PUSH3 0x1CA PUSH0 CODECOPY PUSH0 RETURN INVALID PUSH1 0x80 PUSH1 0x40 MSTORE CALLVALUE DUP1 ISZERO PUSH2 0xF JUMPI PUSH0 DUP1 REVERT JUMPDEST POP PUSH1 0x4 CALLDATASIZE LT PUSH2 0x297 JUMPI PUSH0 CALLDATALOAD PUSH1 0xE0 SHR DUP1 PUSH4 0x81BAC14F GT PUSH2 0x161 JUMPI DUP1 PUSH4 0xB27C9EB8 GT PUSH2 0xCA JUMPI DUP1 PUSH4 0xC8430D7B GT PUSH2 0x84 JUMPI DUP1 PUSH4 0xC8430D7B EQ PUSH2 0x676 JUMPI DUP1 PUSH4 0xC9B6B485 EQ PUSH2 0x689 JUMPI DUP1 PUSH4 0xDE4B3262 EQ PUSH2 0x69C JUMPI DUP1 PUSH4 0xE38E91F9 EQ PUSH2 0x6AF JUMPI DUP1 PUSH4 0xE5711E8B EQ PUSH2 0x6C2 JUMPI DUP1 PUSH4 0xF2FDE38B EQ PUSH2 0x6D5 JUMPI PUSH0 DUP1 REVERT JUMPDEST DUP1 PUSH4 0xB27C9EB8 EQ PUSH2 0x5FA JUMPI DUP1 PUSH4 0xBD0A2E1E EQ PUSH2 0x60D JUMPI DUP1 PUSH4 0xC54E44EB EQ PUSH2 0x620 JUMPI DUP1 PUSH4 0xC5A065C4 EQ PUSH2 0x63B JUMPI DUP1 PUSH4 0xC63A695C EQ PUSH2 0x65A JUMPI DUP1 PUSH4 0xC7876EA4 EQ PUSH2 0x66D JUMPI PUSH0 DUP1 REVERT JUMPDEST DUP1 PUSH4 0x92642744 GT PUSH2 0x11B JUMPI DUP1 PUSH4 0x92642744 EQ PUSH2 0x59D JUMPI DUP1 PUSH4 0x959028CD EQ PUSH2 0x5B0 JUMPI DUP1 PUSH4 0x9B2CB5D8 EQ PUSH2 0x5C3 JUMPI DUP1 PUSH4 0xA694FC3A EQ PUSH2 0x5CC JUMPI DUP1 PUSH4 0xAEE942C3 EQ PUSH2 0x5DF JUMPI DUP1 PUSH4 0xB1035448 EQ PUSH2 0x5F2 JUMPI PUSH0 DUP1 REVERT JUMPDEST DUP1 PUSH4 0x81BAC14F EQ PUSH2 0x52E JUMPI DUP1 PUSH4 0x82BFEFC8 EQ PUSH2 0x541 JUMPI DUP1 PUSH4 0x849BBEB0 EQ PUSH2 0x554 JUMPI DUP1 PUSH4 0x897B0637 EQ PUSH2 0x567 JUMPI DUP1 PUSH4 0x8A3D9075 EQ PUSH2 0x57A JUMPI DUP1 PUSH4 0x8DA5CB5B EQ PUSH2 0x58D JUMPI PUSH0 DUP1 REVERT JUMPDEST DUP1 PUSH4 0x47DE8A90 GT PUSH2 0x203 JUMPI DUP1 PUSH4 0x63034EF1 GT PUSH2 0x1BD JUMPI DUP1 PUSH4 0x63034EF1 EQ PUSH2 0x4DC JUMPI DUP1 PUSH4 0x715018A6 EQ PUSH2 0x4EF JUMPI DUP1 PUSH4 0x771DC86A EQ PUSH2 0x4F7 JUMPI DUP1 PUSH4 0x78E97925 EQ PUSH2 0x50A JUMPI DUP1 PUSH4 0x7D9A7A4C EQ PUSH2 0x513 JUMPI DUP1 PUSH4 0x7FF9B596 EQ PUSH2 0x526 JUMPI PUSH0 DUP1 REVERT JUMPDEST DUP1 PUSH4 0x47DE8A90 EQ PUSH2 0x473 JUMPI DUP1 PUSH4 0x4B45E561 EQ PUSH2 0x47B JUMPI DUP1 PUSH4 0x513076F0 EQ PUSH2 0x484 JUMPI DUP1 PUSH4 0x5960E6E2 EQ PUSH2 0x497 JUMPI DUP1 PUSH4 0x5CB628FA EQ PUSH2 0x4B6 JUMPI DUP1 PUSH4 0x60A62F35 EQ PUSH2 0x4C9 JUMPI PUSH0 DUP1 REVERT JUMPDEST DUP1 PUSH4 0x1C10CDDB GT PUSH2 0x254 JUMPI DUP1 PUSH4 0x1C10CDDB EQ PUSH2 0x3DC JUMPI DUP1 PUSH4 0x30FB0BD5 EQ PUSH2 0x3EF JUMPI DUP1 PUSH4 0x32FE7B26 EQ PUSH2 0x41A JUMPI DUP1 PUSH4 0x3CAE51DC EQ PUSH2 0x435 JUMPI DUP1 PUSH4 0x3E0A322D EQ PUSH2 0x458 JUMPI DUP1 PUSH4 0x4451D89F EQ PUSH2 0x46B JUMPI PUSH0 DUP1 REVERT JUMPDEST DUP1 PUSH4 0x2C3A9D0 EQ PUSH2 0x29B JUMPI DUP1 PUSH4 0x55567F3 EQ PUSH2 0x2C8 JUMPI DUP1 PUSH4 0x6F837D3 EQ PUSH2 0x2E8 JUMPI DUP1 PUSH4 0x99A04E5 EQ PUSH2 0x2FF JUMPI DUP1 PUSH4 0xD39FC81 EQ PUSH2 0x314 JUMPI DUP1 PUSH4 0x1959A002 EQ PUSH2 0x31D JUMPI JUMPDEST PUSH0 DUP1 REVERT JUMPDEST PUSH2 0x2AE PUSH2 0x2A9 CALLDATASIZE PUSH1 0x4 PUSH2 0x1D54 JUMP JUMPDEST PUSH2 0x6E8 JUMP JUMPDEST PUSH1 0x40 DUP1 MLOAD SWAP3 DUP4 MSTORE PUSH1 0x20 DUP4 ADD SWAP2 SWAP1 SWAP2 MSTORE ADD JUMPDEST PUSH1 0x40 MLOAD DUP1 SWAP2 SUB SWAP1 RETURN JUMPDEST PUSH2 0x2DB PUSH2 0x2D6 CALLDATASIZE PUSH1 0x4 PUSH2 0x1D7C JUMP JUMPDEST PUSH2 0x715 JUMP JUMPDEST PUSH1 0x40 MLOAD PUSH2 0x2BF SWAP2 SWAP1 PUSH2 0x1D95 JUMP JUMPDEST PUSH2 0x2F1 PUSH1 0x17 SLOAD DUP2 JUMP JUMPDEST PUSH1 0x40 MLOAD SWAP1 DUP2 MSTORE PUSH1 0x20 ADD PUSH2 0x2BF JUMP JUMPDEST PUSH2 0x312 PUSH2 0x30D CALLDATASIZE PUSH1 0x4 PUSH2 0x1D54 JUMP JUMPDEST PUSH2 0x78C JUMP JUMPDEST STOP JUMPDEST PUSH2 0x2F1 PUSH1 0x18 SLOAD DUP2 JUMP JUMPDEST PUSH2 0x388 PUSH2 0x32B CALLDATASIZE PUSH1 0x4 PUSH2 0x1D7C JUMP JUMPDEST PUSH1 0x1 PUSH1 0x20 DUP2 SWAP1 MSTORE PUSH0 SWAP2 DUP3 MSTORE PUSH1 0x40 SWAP1 SWAP2 KECCAK256 DUP1 SLOAD SWAP2 DUP2 ADD SLOAD PUSH1 0x2 DUP3 ADD SLOAD PUSH1 0x3 DUP4 ADD SLOAD PUSH1 0x4 DUP5 ADD SLOAD PUSH1 0x5 DUP6 ADD SLOAD PUSH1 0x6 DUP7 ADD SLOAD PUSH1 0x7 DUP8 ADD SLOAD PUSH1 0x8 DUP9 ADD SLOAD PUSH1 0x9 SWAP1 SWAP9 ADD SLOAD PUSH1 0x1 PUSH1 0x1 PUSH1 0xA0 SHL SUB SWAP1 SWAP10 AND SWAP9 SWAP7 SWAP8 SWAP6 SWAP7 SWAP5 SWAP6 SWAP4 SWAP5 SWAP3 SWAP4 SWAP2 SWAP3 SWAP1 SWAP2 SWAP1 DUP11 JUMP JUMPDEST PUSH1 0x40 DUP1 MLOAD PUSH1 0x1 PUSH1 0x1 PUSH1 0xA0 SHL SUB SWAP1 SWAP12 AND DUP12 MSTORE PUSH1 0x20 DUP12 ADD SWAP10 SWAP1 SWAP10 MSTORE SWAP8 DUP10 ADD SWAP7 SWAP1 SWAP7 MSTORE PUSH1 0x60 DUP9 ADD SWAP5 SWAP1 SWAP5 MSTORE PUSH1 0x80 DUP8 ADD SWAP3 SWAP1 SWAP3 MSTORE PUSH1 0xA0 DUP7 ADD MSTORE PUSH1 0xC0 DUP6 ADD MSTORE PUSH1 0xE0 DUP5 ADD MSTORE PUSH2 0x100 DUP4 ADD MSTORE PUSH2 0x120 DUP3 ADD MSTORE PUSH2 0x140 ADD PUSH2 0x2BF JUMP JUMPDEST PUSH2 0x2AE PUSH2 0x3EA CALLDATASIZE PUSH1 0x4 PUSH2 0x1D54 JUMP JUMPDEST PUSH2 0x81E JUMP JUMPDEST PUSH1 0x4 SLOAD PUSH2 0x402 SWAP1 PUSH1 0x1 PUSH1 0x1 PUSH1 0xA0 SHL SUB AND DUP2 JUMP JUMPDEST PUSH1 0x40 MLOAD PUSH1 0x1 PUSH1 0x1 PUSH1 0xA0 SHL SUB SWAP1 SWAP2 AND DUP2 MSTORE PUSH1 0x20 ADD PUSH2 0x2BF JUMP JUMPDEST PUSH2 0x402 PUSH20 0x9AC64CC6E4415144C455BD8E4837FEA55603E5C3 DUP2 JUMP JUMPDEST PUSH2 0x448 PUSH2 0x443 CALLDATASIZE PUSH1 0x4 PUSH2 0x1D7C JUMP JUMPDEST PUSH2 0x837 JUMP JUMPDEST PUSH1 0x40 MLOAD SWAP1 ISZERO ISZERO DUP2 MSTORE PUSH1 0x20 ADD PUSH2 0x2BF JUMP JUMPDEST PUSH2 0x312 PUSH2 0x466 CALLDATASIZE PUSH1 0x4 PUSH2 0x1DD2 JUMP JUMPDEST PUSH2 0x886 JUMP JUMPDEST PUSH2 0x312 PUSH2 0x8B4 JUMP JUMPDEST PUSH2 0x312 PUSH2 0xB09 JUMP JUMPDEST PUSH2 0x2F1 PUSH1 0x14 SLOAD DUP2 JUMP JUMPDEST PUSH1 0x5 SLOAD PUSH2 0x402 SWAP1 PUSH1 0x1 PUSH1 0x1 PUSH1 0xA0 SHL SUB AND DUP2 JUMP JUMPDEST PUSH2 0x2F1 PUSH2 0x4A5 CALLDATASIZE PUSH1 0x4 PUSH2 0x1D7C JUMP JUMPDEST PUSH1 0x1C PUSH1 0x20 MSTORE PUSH0 SWAP1 DUP2 MSTORE PUSH1 0x40 SWAP1 KECCAK256 SLOAD DUP2 JUMP JUMPDEST PUSH1 0x6 SLOAD PUSH2 0x402 SWAP1 PUSH1 0x1 PUSH1 0x1 PUSH1 0xA0 SHL SUB AND DUP2 JUMP JUMPDEST PUSH2 0x312 PUSH2 0x4D7 CALLDATASIZE PUSH1 0x4 PUSH2 0x1DE9 JUMP JUMPDEST PUSH2 0xD03 JUMP JUMPDEST PUSH1 0x7 SLOAD PUSH2 0x402 SWAP1 PUSH1 0x1 PUSH1 0x1 PUSH1 0xA0 SHL SUB AND DUP2 JUMP JUMPDEST PUSH2 0x312 PUSH2 0xD5A JUMP JUMPDEST PUSH2 0x2F1 PUSH2 0x505 CALLDATASIZE PUSH1 0x4 PUSH2 0x1DD2 JUMP JUMPDEST PUSH2 0xDCB JUMP JUMPDEST PUSH2 0x2F1 PUSH1 0x13 SLOAD DUP2 JUMP JUMPDEST PUSH2 0x312 PUSH2 0x521 CALLDATASIZE PUSH1 0x4 PUSH2 0x1DD2 JUMP JUMPDEST PUSH2 0xDE1 JUMP JUMPDEST PUSH2 0x2F1 PUSH2 0xE0F JUMP JUMPDEST PUSH2 0x312 PUSH2 0x53C CALLDATASIZE PUSH1 0x4 PUSH2 0x1D7C JUMP JUMPDEST PUSH2 0xF67 JUMP JUMPDEST PUSH1 0x8 SLOAD PUSH2 0x402 SWAP1 PUSH1 0x1 PUSH1 0x1 PUSH1 0xA0 SHL SUB AND DUP2 JUMP JUMPDEST PUSH2 0x2DB PUSH2 0x562 CALLDATASIZE PUSH1 0x4 PUSH2 0x1D7C JUMP JUMPDEST PUSH2 0xFD0 JUMP JUMPDEST PUSH2 0x312 PUSH2 0x575 CALLDATASIZE PUSH1 0x4 PUSH2 0x1DD2 JUMP JUMPDEST PUSH2 0x1023 JUMP JUMPDEST PUSH2 0x312 PUSH2 0x588 CALLDATASIZE PUSH1 0x4 PUSH2 0x1E1A JUMP JUMPDEST PUSH2 0x1051 JUMP JUMPDEST PUSH0 SLOAD PUSH1 0x1 PUSH1 0x1 PUSH1 0xA0 SHL SUB AND PUSH2 0x402 JUMP JUMPDEST PUSH2 0x312 PUSH2 0x5AB CALLDATASIZE PUSH1 0x4 PUSH2 0x1DD2 JUMP JUMPDEST PUSH2 0x10B9 JUMP JUMPDEST PUSH2 0x312 PUSH2 0x5BE CALLDATASIZE PUSH1 0x4 PUSH2 0x1EC8 JUMP JUMPDEST PUSH2 0x124B JUMP JUMPDEST PUSH2 0x2F1 PUSH1 0x15 SLOAD DUP2 JUMP JUMPDEST PUSH2 0x312 PUSH2 0x5DA CALLDATASIZE PUSH1 0x4 PUSH2 0x1DD2 JUMP JUMPDEST PUSH2 0x1285 JUMP JUMPDEST PUSH2 0x2F1 PUSH2 0x5ED CALLDATASIZE PUSH1 0x4 PUSH2 0x1D7C JUMP JUMPDEST PUSH2 0x173E JUMP JUMPDEST PUSH2 0x2F1 PUSH2 0x1785 JUMP JUMPDEST PUSH1 0x3 SLOAD PUSH2 0x402 SWAP1 PUSH1 0x1 PUSH1 0x1 PUSH1 0xA0 SHL SUB AND DUP2 JUMP JUMPDEST PUSH2 0x2F1 PUSH2 0x61B CALLDATASIZE PUSH1 0x4 PUSH2 0x1D7C JUMP JUMPDEST PUSH2 0x17B2 JUMP JUMPDEST PUSH2 0x402 PUSH20 0xFB3C077479113DF18F9F51DC282B09BB0461000 DUP2 JUMP JUMPDEST PUSH2 0x2F1 PUSH2 0x649 CALLDATASIZE PUSH1 0x4 PUSH2 0x1D7C JUMP JUMPDEST PUSH1 0x1A PUSH1 0x20 MSTORE PUSH0 SWAP1 DUP2 MSTORE PUSH1 0x40 SWAP1 KECCAK256 SLOAD DUP2 JUMP JUMPDEST PUSH1 0x2 SLOAD PUSH2 0x402 SWAP1 PUSH1 0x1 PUSH1 0x1 PUSH1 0xA0 SHL SUB AND DUP2 JUMP JUMPDEST PUSH2 0x2F1 PUSH1 0x16 SLOAD DUP2 JUMP JUMPDEST PUSH2 0x312 PUSH2 0x684 CALLDATASIZE PUSH1 0x4 PUSH2 0x1F24 JUMP JUMPDEST PUSH2 0x1858 JUMP JUMPDEST PUSH2 0x402 PUSH2 0x697 CALLDATASIZE PUSH1 0x4 PUSH2 0x1DD2 JUMP JUMPDEST PUSH2 0x18A9 JUMP JUMPDEST PUSH2 0x312 PUSH2 0x6AA CALLDATASIZE PUSH1 0x4 PUSH2 0x1DD2 JUMP JUMPDEST PUSH2 0x18C8 JUMP JUMPDEST PUSH2 0x312 PUSH2 0x6BD CALLDATASIZE PUSH1 0x4 PUSH2 0x1DD2 JUMP JUMPDEST PUSH2 0x18F6 JUMP JUMPDEST PUSH2 0x312 PUSH2 0x6D0 CALLDATASIZE PUSH1 0x4 PUSH2 0x1F9A JUMP JUMPDEST PUSH2 0x1924 JUMP JUMPDEST PUSH2 0x312 PUSH2 0x6E3 CALLDATASIZE PUSH1 0x4 PUSH2 0x1D7C JUMP JUMPDEST PUSH2 0x19BD JUMP JUMPDEST PUSH1 0x1B PUSH1 0x20 MSTORE DUP2 PUSH0 MSTORE PUSH1 0x40 PUSH0 KECCAK256 DUP2 PUSH1 0xA DUP2 LT PUSH2 0x701 JUMPI PUSH0 DUP1 REVERT JUMPDEST PUSH1 0x2 MUL ADD DUP1 SLOAD PUSH1 0x1 SWAP1 SWAP2 ADD SLOAD SWAP1 SWAP3 POP SWAP1 POP DUP3 JUMP JUMPDEST PUSH2 0x71D PUSH2 0x1C6B JUMP JUMPDEST PUSH1 0x1 PUSH1 0x1 PUSH1 0xA0 SHL SUB DUP3 AND PUSH0 SWAP1 DUP2 MSTORE PUSH1 0x19 PUSH1 0x20 MSTORE PUSH1 0x40 DUP1 DUP3 KECCAK256 DUP2 MLOAD PUSH2 0x140 DUP2 ADD SWAP1 SWAP3 MSTORE SWAP1 SWAP2 PUSH1 0xA SWAP1 DUP4 JUMPDEST DUP3 DUP3 LT ISZERO PUSH2 0x781 JUMPI DUP4 DUP3 PUSH1 0x2 MUL ADD PUSH1 0x40 MLOAD DUP1 PUSH1 0x40 ADD PUSH1 0x40 MSTORE SWAP1 DUP2 PUSH0 DUP3 ADD SLOAD DUP2 MSTORE PUSH1 0x20 ADD PUSH1 0x1 DUP3 ADD SLOAD DUP2 MSTORE POP POP DUP2 MSTORE PUSH1 0x20 ADD SWAP1 PUSH1 0x1 ADD SWAP1 PUSH2 0x746 JUMP JUMPDEST POP POP POP POP SWAP1 POP SWAP2 SWAP1 POP JUMP JUMPDEST PUSH0 SLOAD PUSH1 0x1 PUSH1 0x1 PUSH1 0xA0 SHL SUB AND CALLER EQ PUSH2 0x7BE JUMPI PUSH1 0x40 MLOAD PUSH3 0x461BCD PUSH1 0xE5 SHL DUP2 MSTORE PUSH1 0x4 ADD PUSH2 0x7B5 SWAP1 PUSH2 0x1FD3 JUMP JUMPDEST PUSH1 0x40 MLOAD DUP1 SWAP2 SUB SWAP1 REVERT JUMPDEST PUSH0 DUP3 PUSH1 0x1 PUSH1 0x1 PUSH1 0xA0 SHL SUB AND DUP3 PUSH1 0x40 MLOAD PUSH0 PUSH1 0x40 MLOAD DUP1 DUP4 SUB DUP2 DUP6 DUP8 GAS CALL SWAP3 POP POP POP RETURNDATASIZE DUP1 PUSH0 DUP2 EQ PUSH2 0x807 JUMPI PUSH1 0x40 MLOAD SWAP2 POP PUSH1 0x1F NOT PUSH1 0x3F RETURNDATASIZE ADD AND DUP3 ADD PUSH1 0x40 MSTORE RETURNDATASIZE DUP3 MSTORE RETURNDATASIZE PUSH0 PUSH1 0x20 DUP5 ADD RETURNDATACOPY PUSH2 0x80C JUMP JUMPDEST PUSH1 0x60 SWAP2 POP JUMPDEST POP POP SWAP1 POP DUP1 PUSH2 0x819 JUMPI PUSH0 DUP1 REVERT JUMPDEST POP POP POP JUMP JUMPDEST PUSH1 0x19 PUSH1 0x20 MSTORE DUP2 PUSH0 MSTORE PUSH1 0x40 PUSH0 KECCAK256 DUP2 PUSH1 0xA DUP2 LT PUSH2 0x701 JUMPI PUSH0 DUP1 REVERT JUMPDEST PUSH1 0x2 SLOAD PUSH0 SWAP1 PUSH1 0x1 PUSH1 0x1 PUSH1 0xA0 SHL SUB DUP4 DUP2 AND SWAP2 AND EQ DUP1 PUSH2 0x86D JUMPI POP PUSH1 0x1 PUSH1 0x1 PUSH1 0xA0 SHL SUB DUP3 DUP2 AND PUSH0 SWAP1 DUP2 MSTORE PUSH1 0x1 PUSH1 0x20 MSTORE PUSH1 0x40 SWAP1 KECCAK256 SLOAD AND ISZERO ISZERO JUMPDEST ISZERO PUSH2 0x87A JUMPI POP PUSH1 0x1 SWAP2 SWAP1 POP JUMP JUMPDEST POP PUSH0 SWAP2 SWAP1 POP JUMP JUMPDEST SWAP2 SWAP1 POP JUMP JUMPDEST PUSH0 SLOAD PUSH1 0x1 PUSH1 0x1 PUSH1 0xA0 SHL SUB AND CALLER EQ PUSH2 0x8AF JUMPI PUSH1 0x40 MLOAD PUSH3 0x461BCD PUSH1 0xE5 SHL DUP2 MSTORE PUSH1 0x4 ADD PUSH2 0x7B5 SWAP1 PUSH2 0x1FD3 JUMP JUMPDEST PUSH1 0x13 SSTORE JUMP JUMPDEST CALLER ORIGIN EQ PUSH2 0x8D3 JUMPI PUSH1 0x40 MLOAD PUSH3 0x461BCD PUSH1 0xE5 SHL DUP2 MSTORE PUSH1 0x4 ADD PUSH2 0x7B5 SWAP1 PUSH2 0x2008 JUMP JUMPDEST CALLER EXTCODESIZE ISZERO PUSH2 0x8DE JUMPI PUSH0 DUP1 REVERT JUMPDEST CALLER PUSH0 SWAP1 DUP2 MSTORE PUSH1 0x1 PUSH1 0x20 MSTORE PUSH1 0x40 SWAP1 KECCAK256 PUSH1 0x5 DUP2 ADD SLOAD DUP1 PUSH2 0x8FA JUMPI PUSH0 DUP1 REVERT JUMPDEST PUSH0 PUSH1 0x5 DUP4 DUP2 ADD SWAP2 SWAP1 SWAP2 SSTORE SLOAD PUSH1 0x40 MLOAD PUSH4 0xA9059CBB PUSH1 0xE0 SHL DUP2 MSTORE PUSH1 0x1 PUSH1 0x1 PUSH1 0xA0 SHL SUB SWAP1 SWAP2 AND PUSH1 0x4 DUP3 ADD MSTORE PUSH1 0x24 DUP2 ADD DUP3 SWAP1 MSTORE PUSH20 0xFB3C077479113DF18F9F51DC282B09BB0461000 SWAP1 PUSH4 0xA9059CBB SWAP1 PUSH1 0x44 ADD PUSH1 0x20 PUSH1 0x40 MLOAD DUP1 DUP4 SUB DUP2 PUSH0 DUP8 GAS CALL ISZERO DUP1 ISZERO PUSH2 0x964 JUMPI RETURNDATASIZE PUSH0 DUP1 RETURNDATACOPY RETURNDATASIZE PUSH0 REVERT JUMPDEST POP POP POP POP PUSH1 0x40 MLOAD RETURNDATASIZE PUSH1 0x1F NOT PUSH1 0x1F DUP3 ADD AND DUP3 ADD DUP1 PUSH1 0x40 MSTORE POP DUP2 ADD SWAP1 PUSH2 0x988 SWAP2 SWAP1 PUSH2 0x2032 JUMP JUMPDEST POP PUSH0 DUP3 PUSH1 0x6 ADD SLOAD DUP4 PUSH1 0x2 ADD SLOAD PUSH1 0x3 PUSH2 0x9A0 SWAP2 SWAP1 PUSH2 0x2065 JUMP JUMPDEST PUSH2 0x9AA SWAP2 SWAP1 PUSH2 0x2082 JUMP JUMPDEST SWAP1 POP DUP1 DUP3 LT ISZERO PUSH2 0x9D2 JUMPI DUP2 DUP4 PUSH1 0x6 ADD PUSH0 DUP3 DUP3 SLOAD PUSH2 0x9C7 SWAP2 SWAP1 PUSH2 0x2095 JUMP JUMPDEST SWAP1 SWAP2 SSTORE POP PUSH2 0x9FD SWAP1 POP JUMP JUMPDEST CALLER PUSH0 SWAP1 DUP2 MSTORE PUSH1 0x1 PUSH1 0x20 MSTORE PUSH1 0x40 DUP2 KECCAK256 PUSH1 0x2 DUP2 ADD DUP3 SWAP1 SSTORE PUSH1 0x4 DUP2 ADD DUP3 SWAP1 SSTORE PUSH1 0x5 DUP2 ADD DUP3 SWAP1 SSTORE PUSH1 0x6 ADD SSTORE SWAP1 POP DUP1 JUMPDEST PUSH0 PUSH2 0xA06 PUSH2 0xE0F JUMP JUMPDEST PUSH2 0xA18 DUP5 PUSH8 0xDE0B6B3A7640000 PUSH2 0x2065 JUMP JUMPDEST PUSH2 0xA22 SWAP2 SWAP1 PUSH2 0x20BC JUMP JUMPDEST SWAP1 POP PUSH0 PUSH1 0x64 PUSH1 0x17 SLOAD DUP4 PUSH2 0xA35 SWAP2 SWAP1 PUSH2 0x2065 JUMP JUMPDEST PUSH2 0xA3F SWAP2 SWAP1 PUSH2 0x20BC JUMP JUMPDEST PUSH1 0x8 SLOAD PUSH1 0x40 MLOAD PUSH4 0x8934A5F PUSH1 0xE3 SHL DUP2 MSTORE CALLER PUSH1 0x4 DUP3 ADD MSTORE PUSH1 0x24 DUP2 ADD DUP6 SWAP1 MSTORE SWAP2 SWAP3 POP PUSH1 0x1 PUSH1 0x1 PUSH1 0xA0 SHL SUB AND SWAP1 PUSH4 0x449A52F8 SWAP1 PUSH1 0x44 ADD PUSH0 PUSH1 0x40 MLOAD DUP1 DUP4 SUB DUP2 PUSH0 DUP8 DUP1 EXTCODESIZE ISZERO DUP1 ISZERO PUSH2 0xA89 JUMPI PUSH0 DUP1 REVERT JUMPDEST POP GAS CALL ISZERO DUP1 ISZERO PUSH2 0xA9B JUMPI RETURNDATASIZE PUSH0 DUP1 RETURNDATACOPY RETURNDATASIZE PUSH0 REVERT JUMPDEST POP POP PUSH1 0x8 SLOAD PUSH1 0x6 SLOAD PUSH1 0x40 MLOAD PUSH4 0x8934A5F PUSH1 0xE3 SHL DUP2 MSTORE PUSH1 0x1 PUSH1 0x1 PUSH1 0xA0 SHL SUB SWAP2 DUP3 AND PUSH1 0x4 DUP3 ADD MSTORE PUSH1 0x24 DUP2 ADD DUP7 SWAP1 MSTORE SWAP2 AND SWAP3 POP PUSH4 0x449A52F8 SWAP2 POP PUSH1 0x44 ADD PUSH0 PUSH1 0x40 MLOAD DUP1 DUP4 SUB DUP2 PUSH0 DUP8 DUP1 EXTCODESIZE ISZERO DUP1 ISZERO PUSH2 0xAEC JUMPI PUSH0 DUP1 REVERT JUMPDEST POP GAS CALL ISZERO DUP1 ISZERO PUSH2 0xAFE JUMPI RETURNDATASIZE PUSH0 DUP1 RETURNDATACOPY RETURNDATASIZE PUSH0 REVERT JUMPDEST POP POP POP POP POP POP POP POP POP JUMP JUMPDEST CALLER ORIGIN EQ PUSH2 0xB28 JUMPI PUSH1 0x40 MLOAD PUSH3 0x461BCD PUSH1 0xE5 SHL DUP2 MSTORE PUSH1 0x4 ADD PUSH2 0x7B5 SWAP1 PUSH2 0x2008 JUMP JUMPDEST CALLER EXTCODESIZE ISZERO PUSH2 0xB33 JUMPI PUSH0 DUP1 REVERT JUMPDEST CALLER PUSH0 SWAP1 DUP2 MSTORE PUSH1 0x1 PUSH1 0x20 MSTORE PUSH1 0x40 SWAP1 KECCAK256 PUSH1 0x4 DUP2 ADD SLOAD DUP1 PUSH2 0xB4F JUMPI PUSH0 DUP1 REVERT JUMPDEST PUSH0 PUSH1 0x4 DUP4 ADD DUP2 SWAP1 SSTORE PUSH1 0x6 DUP4 ADD SLOAD PUSH1 0x2 DUP5 ADD SLOAD PUSH2 0xB6C SWAP1 PUSH1 0x3 PUSH2 0x2065 JUMP JUMPDEST PUSH2 0xB76 SWAP2 SWAP1 PUSH2 0x2082 JUMP JUMPDEST SWAP1 POP DUP1 DUP3 LT ISZERO PUSH2 0xB9E JUMPI DUP2 DUP4 PUSH1 0x6 ADD PUSH0 DUP3 DUP3 SLOAD PUSH2 0xB93 SWAP2 SWAP1 PUSH2 0x2095 JUMP JUMPDEST SWAP1 SWAP2 SSTORE POP PUSH2 0xBC9 SWAP1 POP JUMP JUMPDEST CALLER PUSH0 SWAP1 DUP2 MSTORE PUSH1 0x1 PUSH1 0x20 MSTORE PUSH1 0x40 DUP2 KECCAK256 PUSH1 0x2 DUP2 ADD DUP3 SWAP1 SSTORE PUSH1 0x4 DUP2 ADD DUP3 SWAP1 SSTORE PUSH1 0x5 DUP2 ADD DUP3 SWAP1 SSTORE PUSH1 0x6 ADD SSTORE SWAP1 POP DUP1 JUMPDEST PUSH0 PUSH1 0x64 PUSH2 0xBD7 DUP5 PUSH1 0x5F PUSH2 0x2065 JUMP JUMPDEST PUSH2 0xBE1 SWAP2 SWAP1 PUSH2 0x20BC JUMP JUMPDEST PUSH1 0x40 MLOAD PUSH4 0xA9059CBB PUSH1 0xE0 SHL DUP2 MSTORE CALLER PUSH1 0x4 DUP3 ADD MSTORE PUSH1 0x24 DUP2 ADD DUP3 SWAP1 MSTORE SWAP1 SWAP2 POP PUSH20 0xFB3C077479113DF18F9F51DC282B09BB0461000 SWAP1 PUSH4 0xA9059CBB SWAP1 PUSH1 0x44 ADD PUSH1 0x20 PUSH1 0x40 MLOAD DUP1 DUP4 SUB DUP2 PUSH0 DUP8 GAS CALL ISZERO DUP1 ISZERO PUSH2 0xC39 JUMPI RETURNDATASIZE PUSH0 DUP1 RETURNDATACOPY RETURNDATASIZE PUSH0 REVERT JUMPDEST POP POP POP POP PUSH1 0x40 MLOAD RETURNDATASIZE PUSH1 0x1F NOT PUSH1 0x1F DUP3 ADD AND DUP3 ADD DUP1 PUSH1 0x40 MSTORE POP DUP2 ADD SWAP1 PUSH2 0xC5D SWAP2 SWAP1 PUSH2 0x2032 JUMP JUMPDEST POP PUSH1 0x4 SLOAD PUSH20 0xFB3C077479113DF18F9F51DC282B09BB0461000 SWAP1 PUSH4 0xA9059CBB SWAP1 PUSH1 0x1 PUSH1 0x1 PUSH1 0xA0 SHL SUB AND PUSH2 0xC90 DUP5 DUP8 PUSH2 0x2082 JUMP JUMPDEST PUSH1 0x40 MLOAD PUSH1 0x1 PUSH1 0x1 PUSH1 0xE0 SHL SUB NOT PUSH1 0xE0 DUP6 SWAP1 SHL AND DUP2 MSTORE PUSH1 0x1 PUSH1 0x1 PUSH1 0xA0 SHL SUB SWAP1 SWAP3 AND PUSH1 0x4 DUP4 ADD MSTORE PUSH1 0x24 DUP3 ADD MSTORE PUSH1 0x44 ADD PUSH1 0x20 PUSH1 0x40 MLOAD DUP1 DUP4 SUB DUP2 PUSH0 DUP8 GAS CALL ISZERO DUP1 ISZERO PUSH2 0xCD8 JUMPI RETURNDATASIZE PUSH0 DUP1 RETURNDATACOPY RETURNDATASIZE PUSH0 REVERT JUMPDEST POP POP POP POP PUSH1 0x40 MLOAD RETURNDATASIZE PUSH1 0x1F NOT PUSH1 0x1F DUP3 ADD AND DUP3 ADD DUP1 PUSH1 0x40 MSTORE POP DUP2 ADD SWAP1 PUSH2 0xCFC SWAP2 SWAP1 PUSH2 0x2032 JUMP JUMPDEST POP POP POP POP POP JUMP JUMPDEST PUSH0 SLOAD PUSH1 0x1 PUSH1 0x1 PUSH1 0xA0 SHL SUB AND CALLER EQ PUSH2 0xD2C JUMPI PUSH1 0x40 MLOAD PUSH3 0x461BCD PUSH1 0xE5 SHL DUP2 MSTORE PUSH1 0x4 ADD PUSH2 0x7B5 SWAP1 PUSH2 0x1FD3 JUMP JUMPDEST PUSH1 0x6 DUP1 SLOAD PUSH1 0x1 PUSH1 0x1 PUSH1 0xA0 SHL SUB SWAP4 DUP5 AND PUSH1 0x1 PUSH1 0x1 PUSH1 0xA0 SHL SUB NOT SWAP2 DUP3 AND OR SWAP1 SWAP2 SSTORE PUSH1 0x7 DUP1 SLOAD SWAP3 SWAP1 SWAP4 AND SWAP2 AND OR SWAP1 SSTORE JUMP JUMPDEST PUSH0 SLOAD PUSH1 0x1 PUSH1 0x1 PUSH1 0xA0 SHL SUB AND CALLER EQ PUSH2 0xD83 JUMPI PUSH1 0x40 MLOAD PUSH3 0x461BCD PUSH1 0xE5 SHL DUP2 MSTORE PUSH1 0x4 ADD PUSH2 0x7B5 SWAP1 PUSH2 0x1FD3 JUMP JUMPDEST PUSH0 DUP1 SLOAD PUSH1 0x40 MLOAD PUSH1 0x1 PUSH1 0x1 PUSH1 0xA0 SHL SUB SWAP1 SWAP2 AND SWAP1 PUSH32 0x8BE0079C531659141344CD1FD0A4F28419497F9722A3DAAFE3B4186F6B6457E0 SWAP1 DUP4 SWAP1 LOG3 PUSH0 DUP1 SLOAD PUSH1 0x1 PUSH1 0x1 PUSH1 0xA0 SHL SUB NOT AND SWAP1 SSTORE JUMP JUMPDEST PUSH1 0xE DUP2 PUSH1 0x5 DUP2 LT PUSH2 0xDDA JUMPI PUSH0 DUP1 REVERT JUMPDEST ADD SLOAD SWAP1 POP DUP2 JUMP JUMPDEST PUSH0 SLOAD PUSH1 0x1 PUSH1 0x1 PUSH1 0xA0 SHL SUB AND CALLER EQ PUSH2 0xE0A JUMPI PUSH1 0x40 MLOAD PUSH3 0x461BCD PUSH1 0xE5 SHL DUP2 MSTORE PUSH1 0x4 ADD PUSH2 0x7B5 SWAP1 PUSH2 0x1FD3 JUMP JUMPDEST PUSH1 0x18 SSTORE JUMP JUMPDEST PUSH1 0x16 SLOAD PUSH0 SWAP1 ISZERO PUSH2 0xE20 JUMPI POP PUSH1 0x16 SLOAD SWAP1 JUMP JUMPDEST PUSH1 0x40 DUP1 MLOAD PUSH1 0x2 DUP1 DUP3 MSTORE PUSH1 0x60 DUP3 ADD DUP4 MSTORE PUSH0 SWAP3 PUSH1 0x20 DUP4 ADD SWAP1 DUP1 CALLDATASIZE DUP4 CALLDATACOPY POP POP PUSH1 0x8 SLOAD DUP3 MLOAD SWAP3 SWAP4 POP PUSH1 0x1 PUSH1 0x1 PUSH1 0xA0 SHL SUB AND SWAP2 DUP4 SWAP2 POP PUSH0 SWAP1 PUSH2 0xE5F JUMPI PUSH2 0xE5F PUSH2 0x20CF JUMP JUMPDEST PUSH1 0x20 MUL PUSH1 0x20 ADD ADD SWAP1 PUSH1 0x1 PUSH1 0x1 PUSH1 0xA0 SHL SUB AND SWAP1 DUP2 PUSH1 0x1 PUSH1 0x1 PUSH1 0xA0 SHL SUB AND DUP2 MSTORE POP POP PUSH20 0xFB3C077479113DF18F9F51DC282B09BB0461000 DUP2 PUSH1 0x1 DUP2 MLOAD DUP2 LT PUSH2 0xEA7 JUMPI PUSH2 0xEA7 PUSH2 0x20CF JUMP JUMPDEST PUSH1 0x1 PUSH1 0x1 PUSH1 0xA0 SHL SUB SWAP1 SWAP3 AND PUSH1 0x20 SWAP3 DUP4 MUL SWAP2 SWAP1 SWAP2 ADD SWAP1 SWAP2 ADD MSTORE PUSH1 0x40 MLOAD PUSH4 0xD06CA61F PUSH1 0xE0 SHL DUP2 MSTORE PUSH0 SWAP1 PUSH20 0x9AC64CC6E4415144C455BD8E4837FEA55603E5C3 SWAP1 PUSH4 0xD06CA61F SWAP1 PUSH2 0xF02 SWAP1 PUSH8 0xDE0B6B3A7640000 SWAP1 DUP7 SWAP1 PUSH1 0x4 ADD PUSH2 0x20E3 JUMP JUMPDEST PUSH0 PUSH1 0x40 MLOAD DUP1 DUP4 SUB DUP2 DUP7 GAS STATICCALL ISZERO DUP1 ISZERO PUSH2 0xF1C JUMPI RETURNDATASIZE PUSH0 DUP1 RETURNDATACOPY RETURNDATASIZE PUSH0 REVERT JUMPDEST POP POP POP POP PUSH1 0x40 MLOAD RETURNDATASIZE PUSH0 DUP3 RETURNDATACOPY PUSH1 0x1F RETURNDATASIZE SWAP1 DUP2 ADD PUSH1 0x1F NOT AND DUP3 ADD PUSH1 0x40 MSTORE PUSH2 0xF43 SWAP2 SWAP1 DUP2 ADD SWAP1 PUSH2 0x213A JUMP JUMPDEST SWAP1 POP DUP1 PUSH1 0x1 DUP2 MLOAD DUP2 LT PUSH2 0xF58 JUMPI PUSH2 0xF58 PUSH2 0x20CF JUMP JUMPDEST PUSH1 0x20 MUL PUSH1 0x20 ADD ADD MLOAD SWAP3 POP POP POP SWAP1 JUMP JUMPDEST PUSH2 0xF70 DUP2 PUSH2 0x837 JUMP JUMPDEST PUSH2 0xF78 JUMPI PUSH0 DUP1 REVERT JUMPDEST PUSH1 0x2 SLOAD PUSH1 0x1 PUSH1 0x1 PUSH1 0xA0 SHL SUB AND CALLER SUB PUSH2 0xF8E JUMPI PUSH0 DUP1 REVERT JUMPDEST CALLER PUSH0 SWAP1 DUP2 MSTORE PUSH1 0x1 PUSH1 0x20 MSTORE PUSH1 0x40 SWAP1 KECCAK256 DUP1 SLOAD PUSH1 0x1 PUSH1 0x1 PUSH1 0xA0 SHL SUB AND ISZERO PUSH2 0xFB0 JUMPI PUSH0 DUP1 REVERT JUMPDEST DUP1 SLOAD PUSH1 0x1 PUSH1 0x1 PUSH1 0xA0 SHL SUB NOT AND PUSH1 0x1 PUSH1 0x1 PUSH1 0xA0 SHL SUB SWAP3 SWAP1 SWAP3 AND SWAP2 SWAP1 SWAP2 OR SWAP1 SSTORE JUMP JUMPDEST PUSH2 0xFD8 PUSH2 0x1C6B JUMP JUMPDEST PUSH1 0x1 PUSH1 0x1 PUSH1 0xA0 SHL SUB DUP3 AND PUSH0 SWAP1 DUP2 MSTORE PUSH1 0x1B PUSH1 0x20 SWAP1 DUP2 MSTORE PUSH1 0x40 SWAP2 DUP3 SWAP1 KECCAK256 DUP3 MLOAD PUSH2 0x180 DUP2 ADD SWAP1 SWAP4 MSTORE DUP1 SLOAD PUSH2 0x140 DUP5 ADD SWAP1 DUP2 MSTORE PUSH1 0x1 DUP1 DUP4 ADD SLOAD PUSH2 0x160 DUP7 ADD MSTORE SWAP1 DUP5 MSTORE SWAP1 SWAP2 PUSH1 0xA SWAP2 SWAP1 DUP5 ADD PUSH2 0x746 JUMP JUMPDEST PUSH0 SLOAD PUSH1 0x1 PUSH1 0x1 PUSH1 0xA0 SHL SUB AND CALLER EQ PUSH2 0x104C JUMPI PUSH1 0x40 MLOAD PUSH3 0x461BCD PUSH1 0xE5 SHL DUP2 MSTORE PUSH1 0x4 ADD PUSH2 0x7B5 SWAP1 PUSH2 0x1FD3 JUMP JUMPDEST PUSH1 0x15 SSTORE JUMP JUMPDEST PUSH0 SLOAD PUSH1 0x1 PUSH1 0x1 PUSH1 0xA0 SHL SUB AND CALLER EQ PUSH2 0x107A JUMPI PUSH1 0x40 MLOAD PUSH3 0x461BCD PUSH1 0xE5 SHL DUP2 MSTORE PUSH1 0x4 ADD PUSH2 0x7B5 SWAP1 PUSH2 0x1FD3 JUMP JUMPDEST PUSH1 0x3 DUP1 SLOAD PUSH1 0x1 PUSH1 0x1 PUSH1 0xA0 SHL SUB SWAP5 DUP6 AND PUSH1 0x1 PUSH1 0x1 PUSH1 0xA0 SHL SUB NOT SWAP2 DUP3 AND OR SWAP1 SWAP2 SSTORE PUSH1 0x4 DUP1 SLOAD SWAP4 DUP6 AND SWAP4 DUP3 AND SWAP4 SWAP1 SWAP4 OR SWAP1 SWAP3 SSTORE PUSH1 0x5 DUP1 SLOAD SWAP2 SWAP1 SWAP4 AND SWAP2 AND OR SWAP1 SSTORE JUMP JUMPDEST CALLER ORIGIN EQ PUSH2 0x10D8 JUMPI PUSH1 0x40 MLOAD PUSH3 0x461BCD PUSH1 0xE5 SHL DUP2 MSTORE PUSH1 0x4 ADD PUSH2 0x7B5 SWAP1 PUSH2 0x2008 JUMP JUMPDEST CALLER EXTCODESIZE ISZERO PUSH2 0x10E3 JUMPI PUSH0 DUP1 REVERT JUMPDEST PUSH0 PUSH2 0x10EC PUSH2 0x1785 JUMP JUMPDEST PUSH2 0x10F6 SWAP1 DUP4 PUSH2 0x2065 JUMP JUMPDEST PUSH1 0x8 SLOAD PUSH1 0x7 SLOAD PUSH1 0x40 MLOAD PUSH4 0x23B872DD PUSH1 0xE0 SHL DUP2 MSTORE CALLER PUSH1 0x4 DUP3 ADD MSTORE PUSH1 0x1 PUSH1 0x1 PUSH1 0xA0 SHL SUB SWAP2 DUP3 AND PUSH1 0x24 DUP3 ADD MSTORE PUSH1 0x44 DUP2 ADD DUP5 SWAP1 MSTORE SWAP3 SWAP4 POP AND SWAP1 PUSH4 0x23B872DD SWAP1 PUSH1 0x64 ADD PUSH1 0x20 PUSH1 0x40 MLOAD DUP1 DUP4 SUB DUP2 PUSH0 DUP8 GAS CALL ISZERO DUP1 ISZERO PUSH2 0x1150 JUMPI RETURNDATASIZE PUSH0 DUP1 RETURNDATACOPY RETURNDATASIZE PUSH0 REVERT JUMPDEST POP POP POP POP PUSH1 0x40 MLOAD RETURNDATASIZE PUSH1 0x1F NOT PUSH1 0x1F DUP3 ADD AND DUP3 ADD DUP1 PUSH1 0x40 MSTORE POP DUP2 ADD SWAP1 PUSH2 0x1174 SWAP2 SWAP1 PUSH2 0x2032 JUMP JUMPDEST POP PUSH2 0x117F CALLER DUP4 PUSH2 0x1AA4 JUMP JUMPDEST CALLER PUSH0 SWAP1 DUP2 MSTORE PUSH1 0x1 PUSH1 0x20 MSTORE PUSH1 0x40 DUP2 KECCAK256 PUSH1 0x8 ADD DUP1 SLOAD DUP5 SWAP3 SWAP1 PUSH2 0x11A0 SWAP1 DUP5 SWAP1 PUSH2 0x2095 JUMP JUMPDEST SWAP1 SWAP2 SSTORE POP POP PUSH1 0x40 DUP1 MLOAD DUP1 DUP3 ADD DUP3 MSTORE TIMESTAMP DUP2 MSTORE PUSH1 0x20 DUP1 DUP3 ADD DUP6 SWAP1 MSTORE CALLER PUSH0 SWAP1 DUP2 MSTORE PUSH1 0x1C DUP3 MSTORE DUP4 DUP2 KECCAK256 SLOAD PUSH1 0x1B SWAP1 SWAP3 MSTORE SWAP3 SWAP1 SWAP3 KECCAK256 SWAP1 SWAP2 SWAP1 DUP3 SWAP1 DUP3 PUSH1 0xA DUP2 LT PUSH2 0x11E5 JUMPI PUSH2 0x11E5 PUSH2 0x20CF JUMP JUMPDEST DUP3 MLOAD PUSH1 0x2 SWAP2 SWAP1 SWAP2 MUL SWAP2 SWAP1 SWAP2 ADD SWAP1 DUP2 SSTORE PUSH1 0x20 SWAP2 DUP3 ADD MLOAD PUSH1 0x1 SWAP1 SWAP2 ADD SSTORE CALLER PUSH0 SWAP1 DUP2 MSTORE PUSH1 0x1C SWAP1 SWAP2 MSTORE PUSH1 0x40 DUP2 KECCAK256 DUP1 SLOAD SWAP2 PUSH2 0x121A DUP4 PUSH2 0x21DB JUMP JUMPDEST SWAP1 SWAP2 SSTORE POP POP CALLER PUSH0 SWAP1 DUP2 MSTORE PUSH1 0x1C PUSH1 0x20 MSTORE PUSH1 0x40 SWAP1 KECCAK256 SLOAD PUSH1 0xA GT PUSH2 0x1245 JUMPI CALLER PUSH0 SWAP1 DUP2 MSTORE PUSH1 0x1C PUSH1 0x20 MSTORE PUSH1 0x40 DUP2 KECCAK256 SSTORE JUMPDEST POP POP POP POP JUMP JUMPDEST PUSH0 SLOAD PUSH1 0x1 PUSH1 0x1 PUSH1 0xA0 SHL SUB AND CALLER EQ PUSH2 0x1274 JUMPI PUSH1 0x40 MLOAD PUSH3 0x461BCD PUSH1 0xE5 SHL DUP2 MSTORE PUSH1 0x4 ADD PUSH2 0x7B5 SWAP1 PUSH2 0x1FD3 JUMP JUMPDEST PUSH2 0x1281 PUSH1 0xE DUP3 PUSH1 0x5 PUSH2 0x1CA4 JUMP JUMPDEST POP POP JUMP JUMPDEST CALLER ORIGIN EQ PUSH2 0x12A4 JUMPI PUSH1 0x40 MLOAD PUSH3 0x461BCD PUSH1 0xE5 SHL DUP2 MSTORE PUSH1 0x4 ADD PUSH2 0x7B5 SWAP1 PUSH2 0x2008 JUMP JUMPDEST CALLER EXTCODESIZE ISZERO PUSH2 0x12AF JUMPI PUSH0 DUP1 REVERT JUMPDEST PUSH0 PUSH1 0x13 SLOAD GT PUSH2 0x12BC JUMPI PUSH0 DUP1 REVERT JUMPDEST PUSH1 0x15 SLOAD DUP2 LT ISZERO DUP1 ISZERO PUSH2 0x12D8 JUMPI POP PUSH1 0x15 SLOAD PUSH2 0x12D6 SWAP1 DUP3 PUSH2 0x21F3 JUMP JUMPDEST ISZERO JUMPDEST PUSH2 0x12E0 JUMPI PUSH0 DUP1 REVERT JUMPDEST CALLER PUSH0 SWAP1 DUP2 MSTORE PUSH1 0x1 PUSH1 0x20 MSTORE PUSH1 0x40 SWAP1 KECCAK256 DUP1 SLOAD PUSH1 0x1 PUSH1 0x1 PUSH1 0xA0 SHL SUB AND DUP1 PUSH2 0x1302 JUMPI PUSH0 DUP1 REVERT JUMPDEST PUSH1 0x2 DUP3 ADD SLOAD ISZERO PUSH2 0x1310 JUMPI PUSH0 DUP1 REVERT JUMPDEST PUSH1 0x40 MLOAD PUSH4 0x23B872DD PUSH1 0xE0 SHL DUP2 MSTORE CALLER PUSH1 0x4 DUP3 ADD MSTORE ADDRESS PUSH1 0x24 DUP3 ADD MSTORE PUSH1 0x44 DUP2 ADD DUP5 SWAP1 MSTORE PUSH20 0xFB3C077479113DF18F9F51DC282B09BB0461000 SWAP1 PUSH4 0x23B872DD SWAP1 PUSH1 0x64 ADD PUSH1 0x20 PUSH1 0x40 MLOAD DUP1 DUP4 SUB DUP2 PUSH0 DUP8 GAS CALL ISZERO DUP1 ISZERO PUSH2 0x136B JUMPI RETURNDATASIZE PUSH0 DUP1 RETURNDATACOPY RETURNDATASIZE PUSH0 REVERT JUMPDEST POP POP POP POP PUSH1 0x40 MLOAD RETURNDATASIZE PUSH1 0x1F NOT PUSH1 0x1F DUP3 ADD AND DUP3 ADD DUP1 PUSH1 0x40 MSTORE POP DUP2 ADD SWAP1 PUSH2 0x138F SWAP2 SWAP1 PUSH2 0x2032 JUMP JUMPDEST POP PUSH1 0x1 PUSH1 0x1 PUSH1 0xA0 SHL SUB DUP2 AND PUSH0 SWAP1 DUP2 MSTORE PUSH1 0x1 PUSH1 0x20 SWAP1 DUP2 MSTORE PUSH1 0x40 DUP1 DUP4 KECCAK256 CALLER DUP1 DUP6 MSTORE PUSH1 0xA DUP3 ADD SWAP1 SWAP4 MSTORE SWAP3 KECCAK256 SLOAD SWAP1 SWAP2 SWAP1 PUSH1 0xFF AND PUSH2 0x13FC JUMPI PUSH1 0x1 PUSH1 0x1 PUSH1 0xA0 SHL SUB DUP3 AND PUSH0 SWAP1 DUP2 MSTORE PUSH1 0xA DUP3 ADD PUSH1 0x20 MSTORE PUSH1 0x40 DUP2 KECCAK256 DUP1 SLOAD PUSH1 0xFF NOT AND PUSH1 0x1 OR SWAP1 SSTORE PUSH1 0x9 DUP3 ADD DUP1 SLOAD SWAP2 PUSH2 0x13F6 DUP4 PUSH2 0x21DB JUMP JUMPDEST SWAP2 SWAP1 POP SSTORE POP JUMPDEST DUP3 PUSH0 DUP1 PUSH2 0x140A PUSH1 0xA DUP10 PUSH2 0x20BC JUMP JUMPDEST PUSH1 0x4 DUP1 SLOAD PUSH1 0x40 MLOAD PUSH4 0xA9059CBB PUSH1 0xE0 SHL DUP2 MSTORE PUSH1 0x1 PUSH1 0x1 PUSH1 0xA0 SHL SUB SWAP1 SWAP2 AND SWAP2 DUP2 ADD SWAP2 SWAP1 SWAP2 MSTORE PUSH1 0x24 DUP2 ADD DUP3 SWAP1 MSTORE SWAP1 SWAP2 POP PUSH20 0xFB3C077479113DF18F9F51DC282B09BB0461000 SWAP1 PUSH4 0xA9059CBB SWAP1 PUSH1 0x44 ADD PUSH1 0x20 PUSH1 0x40 MLOAD DUP1 DUP4 SUB DUP2 PUSH0 DUP8 GAS CALL ISZERO DUP1 ISZERO PUSH2 0x1472 JUMPI RETURNDATASIZE PUSH0 DUP1 RETURNDATACOPY RETURNDATASIZE PUSH0 REVERT JUMPDEST POP POP POP POP PUSH1 0x40 MLOAD RETURNDATASIZE PUSH1 0x1F NOT PUSH1 0x1F DUP3 ADD AND DUP3 ADD DUP1 PUSH1 0x40 MSTORE POP DUP2 ADD SWAP1 PUSH2 0x1496 SWAP2 SWAP1 PUSH2 0x2032 JUMP JUMPDEST POP PUSH0 JUMPDEST PUSH1 0x9 DUP2 PUSH1 0xFF AND LT ISZERO PUSH2 0x1589 JUMPI PUSH1 0x1 PUSH1 0x1 PUSH1 0xA0 SHL SUB DUP5 AND ISZERO PUSH2 0x1589 JUMPI PUSH1 0x1 PUSH1 0x1 PUSH1 0xA0 SHL SUB DUP5 AND PUSH0 SWAP1 DUP2 MSTORE PUSH1 0x1 PUSH1 0x20 DUP2 SWAP1 MSTORE PUSH1 0x40 DUP3 KECCAK256 SWAP1 DUP2 ADD DUP1 SLOAD SWAP2 SWAP3 DUP13 SWAP3 PUSH2 0x14E1 SWAP1 DUP5 SWAP1 PUSH2 0x2095 JUMP JUMPDEST SWAP1 SWAP2 SSTORE POP POP PUSH1 0x2 DUP2 ADD SLOAD ISZERO PUSH2 0x1575 JUMPI PUSH1 0x64 PUSH2 0x14FD DUP5 PUSH1 0x3C PUSH2 0x2065 JUMP JUMPDEST PUSH2 0x1507 SWAP2 SWAP1 PUSH2 0x20BC JUMP JUMPDEST DUP2 PUSH1 0x4 ADD PUSH0 DUP3 DUP3 SLOAD PUSH2 0x1519 SWAP2 SWAP1 PUSH2 0x2095 JUMP JUMPDEST SWAP1 SWAP2 SSTORE POP PUSH1 0x64 SWAP1 POP PUSH2 0x152C DUP5 PUSH1 0x28 PUSH2 0x2065 JUMP JUMPDEST PUSH2 0x1536 SWAP2 SWAP1 PUSH2 0x20BC JUMP JUMPDEST DUP2 PUSH1 0x5 ADD PUSH0 DUP3 DUP3 SLOAD PUSH2 0x1548 SWAP2 SWAP1 PUSH2 0x2095 JUMP JUMPDEST SWAP3 POP POP DUP2 SWAP1 SSTORE POP DUP3 DUP2 PUSH1 0x3 ADD PUSH0 DUP3 DUP3 SLOAD PUSH2 0x1562 SWAP2 SWAP1 PUSH2 0x2095 JUMP JUMPDEST SWAP1 SWAP2 SSTORE POP PUSH2 0x1572 SWAP1 POP DUP4 DUP6 PUSH2 0x2095 JUMP JUMPDEST SWAP4 POP JUMPDEST SLOAD PUSH1 0x1 PUSH1 0x1 PUSH1 0xA0 SHL SUB AND SWAP4 POP PUSH1 0x1 ADD PUSH2 0x1499 JUMP JUMPDEST POP PUSH0 DUP3 PUSH1 0x64 PUSH2 0x1599 DUP12 PUSH1 0x5A PUSH2 0x2065 JUMP JUMPDEST PUSH2 0x15A3 SWAP2 SWAP1 PUSH2 0x20BC JUMP JUMPDEST PUSH2 0x15AD SWAP2 SWAP1 PUSH2 0x2082 JUMP JUMPDEST SWAP1 POP DUP1 ISZERO PUSH2 0x163D JUMPI PUSH1 0x2 SLOAD PUSH1 0x40 MLOAD PUSH4 0xA9059CBB PUSH1 0xE0 SHL DUP2 MSTORE PUSH1 0x1 PUSH1 0x1 PUSH1 0xA0 SHL SUB SWAP1 SWAP2 AND PUSH1 0x4 DUP3 ADD MSTORE PUSH1 0x24 DUP2 ADD DUP3 SWAP1 MSTORE PUSH20 0xFB3C077479113DF18F9F51DC282B09BB0461000 SWAP1 PUSH4 0xA9059CBB SWAP1 PUSH1 0x44 ADD PUSH1 0x20 PUSH1 0x40 MLOAD DUP1 DUP4 SUB DUP2 PUSH0 DUP8 GAS CALL ISZERO DUP1 ISZERO PUSH2 0x1617 JUMPI RETURNDATASIZE PUSH0 DUP1 RETURNDATACOPY RETURNDATASIZE PUSH0 REVERT JUMPDEST POP POP POP POP PUSH1 0x40 MLOAD RETURNDATASIZE PUSH1 0x1F NOT PUSH1 0x1F DUP3 ADD AND DUP3 ADD DUP1 PUSH1 0x40 MSTORE POP DUP2 ADD SWAP1 PUSH2 0x163B SWAP2 SWAP1 PUSH2 0x2032 JUMP JUMPDEST POP JUMPDEST DUP9 DUP9 PUSH1 0x2 ADD DUP2 SWAP1 SSTORE POP DUP9 PUSH1 0x14 PUSH0 DUP3 DUP3 SLOAD PUSH2 0x1657 SWAP2 SWAP1 PUSH2 0x2095 JUMP JUMPDEST SWAP1 SWAP2 SSTORE POP POP PUSH1 0x15 SLOAD PUSH0 SWAP1 PUSH2 0x166B SWAP1 DUP12 PUSH2 0x20BC JUMP JUMPDEST SWAP1 POP DUP1 DUP10 PUSH1 0x7 ADD PUSH0 DUP3 DUP3 SLOAD PUSH2 0x1680 SWAP2 SWAP1 PUSH2 0x2095 JUMP JUMPDEST SWAP1 SWAP2 SSTORE POP PUSH2 0x1690 SWAP1 POP CALLER DUP3 PUSH2 0x1AA4 JUMP JUMPDEST PUSH1 0x40 DUP1 MLOAD DUP1 DUP3 ADD DUP3 MSTORE TIMESTAMP DUP2 MSTORE PUSH1 0x20 DUP1 DUP3 ADD DUP14 SWAP1 MSTORE CALLER PUSH0 SWAP1 DUP2 MSTORE PUSH1 0x1A DUP3 MSTORE DUP4 DUP2 KECCAK256 SLOAD PUSH1 0x19 SWAP1 SWAP3 MSTORE SWAP3 SWAP1 SWAP3 KECCAK256 SWAP1 SWAP2 SWAP1 DUP3 SWAP1 DUP3 PUSH1 0xA DUP2 LT PUSH2 0x16D0 JUMPI PUSH2 0x16D0 PUSH2 0x20CF JUMP JUMPDEST DUP3 MLOAD PUSH1 0x2 SWAP2 SWAP1 SWAP2 MUL SWAP2 SWAP1 SWAP2 ADD SWAP1 DUP2 SSTORE PUSH1 0x20 SWAP2 DUP3 ADD MLOAD PUSH1 0x1 SWAP1 SWAP2 ADD SSTORE CALLER PUSH0 SWAP1 DUP2 MSTORE PUSH1 0x1A SWAP1 SWAP2 MSTORE PUSH1 0x40 DUP2 KECCAK256 DUP1 SLOAD SWAP2 PUSH2 0x1705 DUP4 PUSH2 0x21DB JUMP JUMPDEST SWAP1 SWAP2 SSTORE POP POP CALLER PUSH0 SWAP1 DUP2 MSTORE PUSH1 0x1A PUSH1 0x20 MSTORE PUSH1 0x40 SWAP1 KECCAK256 SLOAD PUSH1 0xA GT PUSH2 0x1730 JUMPI CALLER PUSH0 SWAP1 DUP2 MSTORE PUSH1 0x1A PUSH1 0x20 MSTORE PUSH1 0x40 DUP2 KECCAK256 SSTORE JUMPDEST POP POP POP POP POP POP POP POP POP POP POP POP JUMP JUMPDEST PUSH1 0x1 PUSH1 0x1 PUSH1 0xA0 SHL SUB DUP2 AND PUSH0 SWAP1 DUP2 MSTORE PUSH1 0x1 PUSH1 0x20 MSTORE PUSH1 0x40 DUP2 KECCAK256 PUSH2 0x175D PUSH2 0xE0F JUMP JUMPDEST PUSH1 0x5 DUP3 ADD SLOAD PUSH2 0x1774 SWAP1 PUSH8 0xDE0B6B3A7640000 PUSH2 0x2065 JUMP JUMPDEST PUSH2 0x177E SWAP2 SWAP1 PUSH2 0x20BC JUMP JUMPDEST SWAP4 SWAP3 POP POP POP JUMP JUMPDEST PUSH0 PUSH2 0x178E PUSH2 0xE0F JUMP JUMPDEST PUSH1 0x18 SLOAD PUSH2 0x17A3 SWAP1 PUSH8 0xDE0B6B3A7640000 PUSH2 0x2065 JUMP JUMPDEST PUSH2 0x17AD SWAP2 SWAP1 PUSH2 0x20BC JUMP JUMPDEST SWAP1 POP SWAP1 JUMP JUMPDEST PUSH0 DUP1 DUP1 JUMPDEST PUSH1 0x5 DUP2 LT ISZERO PUSH2 0x1851 JUMPI PUSH1 0x9 DUP2 PUSH1 0x5 DUP2 LT PUSH2 0x17D2 JUMPI PUSH2 0x17D2 PUSH2 0x20CF JUMP JUMPDEST ADD SLOAD PUSH1 0x40 MLOAD PUSH4 0x70A08231 PUSH1 0xE0 SHL DUP2 MSTORE PUSH1 0x1 PUSH1 0x1 PUSH1 0xA0 SHL SUB DUP7 DUP2 AND PUSH1 0x4 DUP4 ADD MSTORE SWAP1 SWAP2 AND SWAP1 PUSH4 0x70A08231 SWAP1 PUSH1 0x24 ADD PUSH1 0x20 PUSH1 0x40 MLOAD DUP1 DUP4 SUB DUP2 DUP7 GAS STATICCALL ISZERO DUP1 ISZERO PUSH2 0x1819 JUMPI RETURNDATASIZE PUSH0 DUP1 RETURNDATACOPY RETURNDATASIZE PUSH0 REVERT JUMPDEST POP POP POP POP PUSH1 0x40 MLOAD RETURNDATASIZE PUSH1 0x1F NOT PUSH1 0x1F DUP3 ADD AND DUP3 ADD DUP1 PUSH1 0x40 MSTORE POP DUP2 ADD SWAP1 PUSH2 0x183D SWAP2 SWAP1 PUSH2 0x2206 JUMP JUMPDEST PUSH2 0x1847 SWAP1 DUP4 PUSH2 0x2095 JUMP JUMPDEST SWAP2 POP PUSH1 0x1 ADD PUSH2 0x17B6 JUMP JUMPDEST POP SWAP3 SWAP2 POP POP JUMP JUMPDEST PUSH0 SLOAD PUSH1 0x1 PUSH1 0x1 PUSH1 0xA0 SHL SUB AND CALLER EQ PUSH2 0x1881 JUMPI PUSH1 0x40 MLOAD PUSH3 0x461BCD PUSH1 0xE5 SHL DUP2 MSTORE PUSH1 0x4 ADD PUSH2 0x7B5 SWAP1 PUSH2 0x1FD3 JUMP JUMPDEST PUSH1 0x8 DUP1 SLOAD PUSH1 0x1 PUSH1 0x1 PUSH1 0xA0 SHL SUB NOT AND PUSH1 0x1 PUSH1 0x1 PUSH1 0xA0 SHL SUB DUP5 AND OR SWAP1 SSTORE PUSH2 0x819 PUSH1 0x9 DUP3 PUSH1 0x5 PUSH2 0x1CE2 JUMP JUMPDEST PUSH1 0x9 DUP2 PUSH1 0x5 DUP2 LT PUSH2 0x18B8 JUMPI PUSH0 DUP1 REVERT JUMPDEST ADD SLOAD PUSH1 0x1 PUSH1 0x1 PUSH1 0xA0 SHL SUB AND SWAP1 POP DUP2 JUMP JUMPDEST PUSH0 SLOAD PUSH1 0x1 PUSH1 0x1 PUSH1 0xA0 SHL SUB AND CALLER EQ PUSH2 0x18F1 JUMPI PUSH1 0x40 MLOAD PUSH3 0x461BCD PUSH1 0xE5 SHL DUP2 MSTORE PUSH1 0x4 ADD PUSH2 0x7B5 SWAP1 PUSH2 0x1FD3 JUMP JUMPDEST PUSH1 0x16 SSTORE JUMP JUMPDEST PUSH0 SLOAD PUSH1 0x1 PUSH1 0x1 PUSH1 0xA0 SHL SUB AND CALLER EQ PUSH2 0x191F JUMPI PUSH1 0x40 MLOAD PUSH3 0x461BCD PUSH1 0xE5 SHL DUP2 MSTORE PUSH1 0x4 ADD PUSH2 0x7B5 SWAP1 PUSH2 0x1FD3 JUMP JUMPDEST PUSH1 0x17 SSTORE JUMP JUMPDEST PUSH0 SLOAD PUSH1 0x1 PUSH1 0x1 PUSH1 0xA0 SHL SUB AND CALLER EQ PUSH2 0x194D JUMPI PUSH1 0x40 MLOAD PUSH3 0x461BCD PUSH1 0xE5 SHL DUP2 MSTORE PUSH1 0x4 ADD PUSH2 0x7B5 SWAP1 PUSH2 0x1FD3 JUMP JUMPDEST PUSH1 0x40 MLOAD PUSH4 0xA9059CBB PUSH1 0xE0 SHL DUP2 MSTORE PUSH1 0x1 PUSH1 0x1 PUSH1 0xA0 SHL SUB DUP4 DUP2 AND PUSH1 0x4 DUP4 ADD MSTORE PUSH1 0x24 DUP3 ADD DUP4 SWAP1 MSTORE DUP5 AND SWAP1 PUSH4 0xA9059CBB SWAP1 PUSH1 0x44 ADD PUSH1 0x20 PUSH1 0x40 MLOAD DUP1 DUP4 SUB DUP2 PUSH0 DUP8 GAS CALL ISZERO DUP1 ISZERO PUSH2 0x1999 JUMPI RETURNDATASIZE PUSH0 DUP1 RETURNDATACOPY RETURNDATASIZE PUSH0 REVERT JUMPDEST POP POP POP POP PUSH1 0x40 MLOAD RETURNDATASIZE PUSH1 0x1F NOT PUSH1 0x1F DUP3 ADD AND DUP3 ADD DUP1 PUSH1 0x40 MSTORE POP DUP2 ADD SWAP1 PUSH2 0x1245 SWAP2 SWAP1 PUSH2 0x2032 JUMP JUMPDEST PUSH0 SLOAD PUSH1 0x1 PUSH1 0x1 PUSH1 0xA0 SHL SUB AND CALLER EQ PUSH2 0x19E6 JUMPI PUSH1 0x40 MLOAD PUSH3 0x461BCD PUSH1 0xE5 SHL DUP2 MSTORE PUSH1 0x4 ADD PUSH2 0x7B5 SWAP1 PUSH2 0x1FD3 JUMP JUMPDEST PUSH1 0x1 PUSH1 0x1 PUSH1 0xA0 SHL SUB DUP2 AND PUSH2 0x1A4B JUMPI PUSH1 0x40 MLOAD PUSH3 0x461BCD PUSH1 0xE5 SHL DUP2 MSTORE PUSH1 0x20 PUSH1 0x4 DUP3 ADD MSTORE PUSH1 0x26 PUSH1 0x24 DUP3 ADD MSTORE PUSH32 0x4F776E61626C653A206E6577206F776E657220697320746865207A65726F2061 PUSH1 0x44 DUP3 ADD MSTORE PUSH6 0x646472657373 PUSH1 0xD0 SHL PUSH1 0x64 DUP3 ADD MSTORE PUSH1 0x84 ADD PUSH2 0x7B5 JUMP JUMPDEST PUSH0 DUP1 SLOAD PUSH1 0x40 MLOAD PUSH1 0x1 PUSH1 0x1 PUSH1 0xA0 SHL SUB DUP1 DUP6 AND SWAP4 SWAP3 AND SWAP2 PUSH32 0x8BE0079C531659141344CD1FD0A4F28419497F9722A3DAAFE3B4186F6B6457E0 SWAP2 LOG3 PUSH0 DUP1 SLOAD PUSH1 0x1 PUSH1 0x1 PUSH1 0xA0 SHL SUB NOT AND PUSH1 0x1 PUSH1 0x1 PUSH1 0xA0 SHL SUB SWAP3 SWAP1 SWAP3 AND SWAP2 SWAP1 SWAP2 OR SWAP1 SSTORE JUMP JUMPDEST PUSH0 JUMPDEST DUP2 DUP2 LT ISZERO PUSH2 0x819 JUMPI PUSH0 TIMESTAMP NUMBER CALLER DUP5 PUSH1 0x40 MLOAD PUSH1 0x20 ADD PUSH2 0x1AEE SWAP5 SWAP4 SWAP3 SWAP2 SWAP1 SWAP4 DUP5 MSTORE PUSH1 0x20 DUP5 ADD SWAP3 SWAP1 SWAP3 MSTORE PUSH1 0x60 SHL PUSH12 0xFFFFFFFFFFFFFFFFFFFFFFFF NOT AND PUSH1 0x40 DUP4 ADD MSTORE PUSH1 0x54 DUP3 ADD MSTORE PUSH1 0x74 ADD SWAP1 JUMP JUMPDEST PUSH1 0x40 DUP1 MLOAD PUSH1 0x1F NOT DUP2 DUP5 SUB ADD DUP2 MSTORE SWAP2 SWAP1 MSTORE DUP1 MLOAD PUSH1 0x20 SWAP1 SWAP2 ADD KECCAK256 SWAP1 POP PUSH2 0x1B13 PUSH1 0x64 DUP3 PUSH2 0x21F3 JUMP JUMPDEST PUSH2 0x1B1E SWAP1 PUSH1 0x1 PUSH2 0x2095 JUMP JUMPDEST PUSH1 0x9 SLOAD PUSH1 0x12 SLOAD SWAP2 SWAP3 POP PUSH1 0x1 PUSH1 0x1 PUSH1 0xA0 SHL SUB AND SWAP1 PUSH2 0x1B3C SWAP1 PUSH1 0x64 PUSH2 0x2082 JUMP JUMPDEST DUP3 GT ISZERO PUSH2 0x1B5A JUMPI PUSH1 0x9 PUSH1 0x4 JUMPDEST ADD SLOAD PUSH1 0x1 PUSH1 0x1 PUSH1 0xA0 SHL SUB AND SWAP1 POP PUSH2 0x1C07 JUMP JUMPDEST PUSH1 0x11 SLOAD PUSH1 0x12 SLOAD PUSH2 0x1B6A SWAP2 SWAP1 PUSH2 0x2095 JUMP JUMPDEST PUSH2 0x1B75 SWAP1 PUSH1 0x64 PUSH2 0x2082 JUMP JUMPDEST DUP3 GT ISZERO PUSH2 0x1B85 JUMPI PUSH1 0x9 PUSH1 0x3 PUSH2 0x1B48 JUMP JUMPDEST PUSH1 0x10 SLOAD PUSH1 0x11 SLOAD PUSH1 0x12 SLOAD PUSH2 0x1B98 SWAP2 SWAP1 PUSH2 0x2095 JUMP JUMPDEST PUSH2 0x1BA2 SWAP2 SWAP1 PUSH2 0x2095 JUMP JUMPDEST PUSH2 0x1BAD SWAP1 PUSH1 0x64 PUSH2 0x2082 JUMP JUMPDEST DUP3 GT ISZERO PUSH2 0x1BBD JUMPI PUSH1 0x9 PUSH1 0x2 PUSH2 0x1B48 JUMP JUMPDEST PUSH1 0xF SLOAD PUSH1 0x10 SLOAD PUSH1 0x11 SLOAD PUSH1 0x12 SLOAD PUSH2 0x1BD3 SWAP2 SWAP1 PUSH2 0x2095 JUMP JUMPDEST PUSH2 0x1BDD SWAP2 SWAP1 PUSH2 0x2095 JUMP JUMPDEST PUSH2 0x1BE7 SWAP2 SWAP1 PUSH2 0x2095 JUMP JUMPDEST PUSH2 0x1BF2 SWAP1 PUSH1 0x64 PUSH2 0x2082 JUMP JUMPDEST DUP3 GT ISZERO PUSH2 0x1C07 JUMPI POP PUSH1 0xA SLOAD PUSH1 0x1 PUSH1 0x1 PUSH1 0xA0 SHL SUB AND JUMPDEST PUSH1 0x40 MLOAD PUSH4 0x755EDD17 PUSH1 0xE0 SHL DUP2 MSTORE PUSH1 0x1 PUSH1 0x1 PUSH1 0xA0 SHL SUB DUP7 DUP2 AND PUSH1 0x4 DUP4 ADD MSTORE DUP3 AND SWAP1 PUSH4 0x755EDD17 SWAP1 PUSH1 0x24 ADD PUSH0 PUSH1 0x40 MLOAD DUP1 DUP4 SUB DUP2 PUSH0 DUP8 DUP1 EXTCODESIZE ISZERO DUP1 ISZERO PUSH2 0x1C47 JUMPI PUSH0 DUP1 REVERT JUMPDEST POP GAS CALL ISZERO DUP1 ISZERO PUSH2 0x1C59 JUMPI RETURNDATASIZE PUSH0 DUP1 RETURNDATACOPY RETURNDATASIZE PUSH0 REVERT JUMPDEST POP POP PUSH1 0x1 SWAP1 SWAP5 ADD SWAP4 POP PUSH2 0x1AA6 SWAP3 POP POP POP JUMP JUMPDEST PUSH1 0x40 MLOAD DUP1 PUSH2 0x140 ADD PUSH1 0x40 MSTORE DUP1 PUSH1 0xA SWAP1 JUMPDEST PUSH1 0x40 DUP1 MLOAD DUP1 DUP3 ADD SWAP1 SWAP2 MSTORE PUSH0 DUP1 DUP3 MSTORE PUSH1 0x20 DUP3 ADD MSTORE DUP2 MSTORE PUSH1 0x20 ADD SWAP1 PUSH1 0x1 SWAP1 SUB SWAP1 DUP2 PUSH2 0x1C7B JUMPI SWAP1 POP POP SWAP1 JUMP JUMPDEST DUP3 PUSH1 0x5 DUP2 ADD SWAP3 DUP3 ISZERO PUSH2 0x1CD2 JUMPI SWAP2 PUSH1 0x20 MUL DUP3 ADD JUMPDEST DUP3 DUP2 GT ISZERO PUSH2 0x1CD2 JUMPI DUP3 MLOAD DUP3 SSTORE SWAP2 PUSH1 0x20 ADD SWAP2 SWAP1 PUSH1 0x1 ADD SWAP1 PUSH2 0x1CB7 JUMP JUMPDEST POP PUSH2 0x1CDE SWAP3 SWAP2 POP PUSH2 0x1D2A JUMP JUMPDEST POP SWAP1 JUMP JUMPDEST DUP3 PUSH1 0x5 DUP2 ADD SWAP3 DUP3 ISZERO PUSH2 0x1CD2 JUMPI SWAP2 PUSH1 0x20 MUL DUP3 ADD JUMPDEST DUP3 DUP2 GT ISZERO PUSH2 0x1CD2 JUMPI DUP3 MLOAD DUP3 SLOAD PUSH1 0x1 PUSH1 0x1 PUSH1 0xA0 SHL SUB NOT AND PUSH1 0x1 PUSH1 0x1 PUSH1 0xA0 SHL SUB SWAP1 SWAP2 AND OR DUP3 SSTORE PUSH1 0x20 SWAP1 SWAP3 ADD SWAP2 PUSH1 0x1 SWAP1 SWAP2 ADD SWAP1 PUSH2 0x1CF5 JUMP JUMPDEST JUMPDEST DUP1 DUP3 GT ISZERO PUSH2 0x1CDE JUMPI PUSH0 DUP2 SSTORE PUSH1 0x1 ADD PUSH2 0x1D2B JUMP JUMPDEST DUP1 CALLDATALOAD PUSH1 0x1 PUSH1 0x1 PUSH1 0xA0 SHL SUB DUP2 AND DUP2 EQ PUSH2 0x881 JUMPI PUSH0 DUP1 REVERT JUMPDEST PUSH0 DUP1 PUSH1 0x40 DUP4 DUP6 SUB SLT ISZERO PUSH2 0x1D65 JUMPI PUSH0 DUP1 REVERT JUMPDEST PUSH2 0x1D6E DUP4 PUSH2 0x1D3E JUMP JUMPDEST SWAP5 PUSH1 0x20 SWAP4 SWAP1 SWAP4 ADD CALLDATALOAD SWAP4 POP POP POP JUMP JUMPDEST PUSH0 PUSH1 0x20 DUP3 DUP5 SUB SLT ISZERO PUSH2 0x1D8C JUMPI PUSH0 DUP1 REVERT JUMPDEST PUSH2 0x177E DUP3 PUSH2 0x1D3E JUMP JUMPDEST PUSH2 0x280 DUP2 ADD DUP2 DUP4 PUSH0 JUMPDEST PUSH1 0xA DUP2 LT ISZERO PUSH2 0x1DC9 JUMPI DUP2 MLOAD DUP1 MLOAD DUP5 MSTORE PUSH1 0x20 SWAP1 DUP2 ADD MLOAD DUP2 DUP6 ADD MSTORE PUSH1 0x40 SWAP1 SWAP4 ADD SWAP3 SWAP1 SWAP2 ADD SWAP1 PUSH1 0x1 ADD PUSH2 0x1D9E JUMP JUMPDEST POP POP POP SWAP3 SWAP2 POP POP JUMP JUMPDEST PUSH0 PUSH1 0x20 DUP3 DUP5 SUB SLT ISZERO PUSH2 0x1DE2 JUMPI PUSH0 DUP1 REVERT JUMPDEST POP CALLDATALOAD SWAP2 SWAP1 POP JUMP JUMPDEST PUSH0 DUP1 PUSH1 0x40 DUP4 DUP6 SUB SLT ISZERO PUSH2 0x1DFA JUMPI PUSH0 DUP1 REVERT JUMPDEST PUSH2 0x1E03 DUP4 PUSH2 0x1D3E JUMP JUMPDEST SWAP2 POP PUSH2 0x1E11 PUSH1 0x20 DUP5 ADD PUSH2 0x1D3E JUMP JUMPDEST SWAP1 POP SWAP3 POP SWAP3 SWAP1 POP JUMP JUMPDEST PUSH0 DUP1 PUSH0 PUSH1 0x60 DUP5 DUP7 SUB SLT ISZERO PUSH2 0x1E2C JUMPI PUSH0 DUP1 REVERT JUMPDEST PUSH2 0x1E35 DUP5 PUSH2 0x1D3E JUMP JUMPDEST SWAP3 POP PUSH2 0x1E43 PUSH1 0x20 DUP6 ADD PUSH2 0x1D3E JUMP JUMPDEST SWAP2 POP PUSH2 0x1E51 PUSH1 0x40 DUP6 ADD PUSH2 0x1D3E JUMP JUMPDEST SWAP1 POP SWAP3 POP SWAP3 POP SWAP3 JUMP JUMPDEST PUSH4 0x4E487B71 PUSH1 0xE0 SHL PUSH0 MSTORE PUSH1 0x41 PUSH1 0x4 MSTORE PUSH1 0x24 PUSH0 REVERT JUMPDEST PUSH1 0x40 MLOAD PUSH1 0xA0 DUP2 ADD PUSH8 0xFFFFFFFFFFFFFFFF DUP2 GT DUP3 DUP3 LT OR ISZERO PUSH2 0x1E91 JUMPI PUSH2 0x1E91 PUSH2 0x1E5A JUMP JUMPDEST PUSH1 0x40 MSTORE SWAP1 JUMP JUMPDEST PUSH1 0x40 MLOAD PUSH1 0x1F DUP3 ADD PUSH1 0x1F NOT AND DUP2 ADD PUSH8 0xFFFFFFFFFFFFFFFF DUP2 GT DUP3 DUP3 LT OR ISZERO PUSH2 0x1EC0 JUMPI PUSH2 0x1EC0 PUSH2 0x1E5A JUMP JUMPDEST PUSH1 0x40 MSTORE SWAP2 SWAP1 POP JUMP JUMPDEST PUSH0 PUSH1 0xA0 DUP3 DUP5 SUB SLT ISZERO PUSH2 0x1ED8 JUMPI PUSH0 DUP1 REVERT JUMPDEST DUP3 PUSH1 0x1F DUP4 ADD SLT PUSH2 0x1EE6 JUMPI PUSH0 DUP1 REVERT JUMPDEST PUSH2 0x1EEE PUSH2 0x1E6E JUMP JUMPDEST DUP1 PUSH1 0xA0 DUP5 ADD DUP6 DUP2 GT ISZERO PUSH2 0x1EFF JUMPI PUSH0 DUP1 REVERT JUMPDEST DUP5 JUMPDEST DUP2 DUP2 LT ISZERO PUSH2 0x1F19 JUMPI DUP1 CALLDATALOAD DUP5 MSTORE PUSH1 0x20 SWAP4 DUP5 ADD SWAP4 ADD PUSH2 0x1F01 JUMP JUMPDEST POP SWAP1 SWAP6 SWAP5 POP POP POP POP POP JUMP JUMPDEST PUSH0 DUP1 PUSH1 0xC0 DUP4 DUP6 SUB SLT ISZERO PUSH2 0x1F35 JUMPI PUSH0 DUP1 REVERT JUMPDEST PUSH2 0x1F3E DUP4 PUSH2 0x1D3E JUMP JUMPDEST SWAP2 POP PUSH1 0x20 DUP5 PUSH1 0x3F DUP6 ADD SLT PUSH2 0x1F50 JUMPI PUSH0 DUP1 REVERT JUMPDEST PUSH2 0x1F58 PUSH2 0x1E6E JUMP JUMPDEST DUP1 PUSH1 0xC0 DUP7 ADD DUP8 DUP2 GT ISZERO PUSH2 0x1F69 JUMPI PUSH0 DUP1 REVERT JUMPDEST PUSH1 0x20 DUP8 ADD JUMPDEST DUP2 DUP2 LT ISZERO PUSH2 0x1F8C JUMPI PUSH2 0x1F7F DUP2 PUSH2 0x1D3E JUMP JUMPDEST DUP5 MSTORE SWAP3 DUP5 ADD SWAP3 DUP5 ADD PUSH2 0x1F6E JUMP JUMPDEST POP SWAP5 SWAP8 SWAP1 SWAP7 POP SWAP5 POP POP POP POP POP JUMP JUMPDEST PUSH0 DUP1 PUSH0 PUSH1 0x60 DUP5 DUP7 SUB SLT ISZERO PUSH2 0x1FAC JUMPI PUSH0 DUP1 REVERT JUMPDEST PUSH2 0x1FB5 DUP5 PUSH2 0x1D3E JUMP JUMPDEST SWAP3 POP PUSH2 0x1FC3 PUSH1 0x20 DUP6 ADD PUSH2 0x1D3E JUMP JUMPDEST SWAP2 POP PUSH1 0x40 DUP5 ADD CALLDATALOAD SWAP1 POP SWAP3 POP SWAP3 POP SWAP3 JUMP JUMPDEST PUSH1 0x20 DUP1 DUP3 MSTORE DUP2 DUP2 ADD MSTORE PUSH32 0x4F776E61626C653A2063616C6C6572206973206E6F7420746865206F776E6572 PUSH1 0x40 DUP3 ADD MSTORE PUSH1 0x60 ADD SWAP1 JUMP JUMPDEST PUSH1 0x20 DUP1 DUP3 MSTORE PUSH1 0x10 SWAP1 DUP3 ADD MSTORE PUSH16 0x13DB9B1E481153D048185B1B1BDDD959 PUSH1 0x82 SHL PUSH1 0x40 DUP3 ADD MSTORE PUSH1 0x60 ADD SWAP1 JUMP JUMPDEST PUSH0 PUSH1 0x20 DUP3 DUP5 SUB SLT ISZERO PUSH2 0x2042 JUMPI PUSH0 DUP1 REVERT JUMPDEST DUP2 MLOAD DUP1 ISZERO ISZERO DUP2 EQ PUSH2 0x177E JUMPI PUSH0 DUP1 REVERT JUMPDEST PUSH4 0x4E487B71 PUSH1 0xE0 SHL PUSH0 MSTORE PUSH1 0x11 PUSH1 0x4 MSTORE PUSH1 0x24 PUSH0 REVERT JUMPDEST DUP1 DUP3 MUL DUP2 ISZERO DUP3 DUP3 DIV DUP5 EQ OR PUSH2 0x207C JUMPI PUSH2 0x207C PUSH2 0x2051 JUMP JUMPDEST SWAP3 SWAP2 POP POP JUMP JUMPDEST DUP2 DUP2 SUB DUP2 DUP2 GT ISZERO PUSH2 0x207C JUMPI PUSH2 0x207C PUSH2 0x2051 JUMP JUMPDEST DUP1 DUP3 ADD DUP1 DUP3 GT ISZERO PUSH2 0x207C JUMPI PUSH2 0x207C PUSH2 0x2051 JUMP JUMPDEST PUSH4 0x4E487B71 PUSH1 0xE0 SHL PUSH0 MSTORE PUSH1 0x12 PUSH1 0x4 MSTORE PUSH1 0x24 PUSH0 REVERT JUMPDEST PUSH0 DUP3 PUSH2 0x20CA JUMPI PUSH2 0x20CA PUSH2 0x20A8 JUMP JUMPDEST POP DIV SWAP1 JUMP JUMPDEST PUSH4 0x4E487B71 PUSH1 0xE0 SHL PUSH0 MSTORE PUSH1 0x32 PUSH1 0x4 MSTORE PUSH1 0x24 PUSH0 REVERT JUMPDEST PUSH0 PUSH1 0x40 DUP3 ADD DUP5 DUP4 MSTORE PUSH1 0x20 PUSH1 0x40 PUSH1 0x20 DUP6 ADD MSTORE DUP2 DUP6 MLOAD DUP1 DUP5 MSTORE PUSH1 0x60 DUP7 ADD SWAP2 POP PUSH1 0x20 DUP8 ADD SWAP4 POP PUSH0 JUMPDEST DUP2 DUP2 LT ISZERO PUSH2 0x212D JUMPI DUP5 MLOAD PUSH1 0x1 PUSH1 0x1 PUSH1 0xA0 SHL SUB AND DUP4 MSTORE SWAP4 DUP4 ADD SWAP4 SWAP2 DUP4 ADD SWAP2 PUSH1 0x1 ADD PUSH2 0x2108 JUMP JUMPDEST POP SWAP1 SWAP8 SWAP7 POP POP POP POP POP POP POP JUMP JUMPDEST PUSH0 PUSH1 0x20 DUP1 DUP4 DUP6 SUB SLT ISZERO PUSH2 0x214B JUMPI PUSH0 DUP1 REVERT JUMPDEST DUP3 MLOAD PUSH8 0xFFFFFFFFFFFFFFFF DUP1 DUP3 GT ISZERO PUSH2 0x2162 JUMPI PUSH0 DUP1 REVERT JUMPDEST DUP2 DUP6 ADD SWAP2 POP DUP6 PUSH1 0x1F DUP4 ADD SLT PUSH2 0x2175 JUMPI PUSH0 DUP1 REVERT JUMPDEST DUP2 MLOAD DUP2 DUP2 GT ISZERO PUSH2 0x2187 JUMPI PUSH2 0x2187 PUSH2 0x1E5A JUMP JUMPDEST DUP1 PUSH1 0x5 SHL SWAP2 POP PUSH2 0x2198 DUP5 DUP4 ADD PUSH2 0x1E97 JUMP JUMPDEST DUP2 DUP2 MSTORE SWAP2 DUP4 ADD DUP5 ADD SWAP2 DUP5 DUP2 ADD SWAP1 DUP9 DUP5 GT ISZERO PUSH2 0x21B1 JUMPI PUSH0 DUP1 REVERT JUMPDEST SWAP4 DUP6 ADD SWAP4 JUMPDEST DUP4 DUP6 LT ISZERO PUSH2 0x21CF JUMPI DUP5 MLOAD DUP3 MSTORE SWAP4 DUP6 ADD SWAP4 SWAP1 DUP6 ADD SWAP1 PUSH2 0x21B6 JUMP JUMPDEST SWAP9 SWAP8 POP POP POP POP POP POP POP POP JUMP JUMPDEST PUSH0 PUSH1 0x1 DUP3 ADD PUSH2 0x21EC JUMPI PUSH2 0x21EC PUSH2 0x2051 JUMP JUMPDEST POP PUSH1 0x1 ADD SWAP1 JUMP JUMPDEST PUSH0 DUP3 PUSH2 0x2201 JUMPI PUSH2 0x2201 PUSH2 0x20A8 JUMP JUMPDEST POP MOD SWAP1 JUMP JUMPDEST PUSH0 PUSH1 0x20 DUP3 DUP5 SUB SLT ISZERO PUSH2 0x2216 JUMPI PUSH0 DUP1 REVERT JUMPDEST POP MLOAD SWAP2 SWAP1 POP JUMP INVALID LOG2 PUSH5 0x6970667358 0x22 SLT KECCAK256 0xE0 CALLCODE 0x2A 0x22 JUMP 0x2C 0xE3 0x24 0xBE 0xBC 0xE4 0xD1 0x26 ORIGIN 0x29 0xC5 CALLVALUE DUP5 0x26 0x26 0xBB 0xDA OR PUSH9 0x6555B4757FCFD8B564 PUSH20 0x6F6C634300081800330000000000000000000000 "
		},
		"gasEstimates": {
			"creation": {
				"codeDepositCost": "1757400",
				"executionCost": "infinite",
				"totalCost": "infinite"
			},
			"external": {
				"NFTS(uint256)": "2521",
				"ROUTER()": "305",
				"TOKEN()": "2404",
				"USDT()": "304",
				"basePrice()": "2449",
				"bind(address)": "33391",
				"claimToken()": "infinite",
				"claimUsdt()": "infinite",
				"equalToken(address)": "infinite",
				"equalTokenPerNFT()": "infinite",
				"firstAddr()": "2469",
				"getUserNftBalance(address)": "infinite",
				"getUserNftRecords(address)": "infinite",
				"getUserStakeRecords(address)": "infinite",
				"init(address,address[5])": "infinite",
				"isValidInviter(address)": "4865",
				"lastNftIndex(address)": "2628",
				"lastStakeIndex(address)": "2627",
				"marketingAddrA()": "2381",
				"marketingAddrB()": "2404",
				"marketingAddrC()": "2426",
				"minAmount()": "2383",
				"mintNFT(uint256)": "infinite",
				"nftPrice()": "2429",
				"nftRecord(address,uint256)": "4770",
				"owner()": "2485",
				"ratios(uint256)": "2505",
				"renounceOwnership()": "30228",
				"rescueETH(address,uint256)": "infinite",
				"rescueToken(address,address,uint256)": "infinite",
				"setBasePrice(uint256)": "24549",
				"setMarketingAddr(address,address,address)": "infinite",
				"setMinAmount(uint256)": "24573",
				"setNftPrice(uint256)": "24594",
				"setRatios(uint256[5])": "infinite",
				"setStartTime(uint256)": "24595",
				"setTokenRatio(uint256)": "24571",
				"setTokenVault(address,address)": "infinite",
				"stake(uint256)": "infinite",
				"stakeRecord(address,uint256)": "4769",
				"startTime()": "2405",
				"tokenPrice()": "infinite",
				"tokenRatio()": "2385",
				"tokenVault1()": "2470",
				"tokenVault2()": "2381",
				"totalStakedNet()": "2362",
				"transferOwnership(address)": "30549",
				"userInfo(address)": "21936"
			},
			"internal": {
				"_mintNft(address,uint256)": "infinite",
				"_quit(address)": "infinite"
			}
		},
		"methodIdentifiers": {
			"NFTS(uint256)": "c9b6b485",
			"ROUTER()": "32fe7b26",
			"TOKEN()": "82bfefc8",
			"USDT()": "c54e44eb",
			"basePrice()": "c7876ea4",
			"bind(address)": "81bac14f",
			"claimToken()": "4451d89f",
			"claimUsdt()": "47de8a90",
			"equalToken(address)": "aee942c3",
			"equalTokenPerNFT()": "b1035448",
			"firstAddr()": "c63a695c",
			"getUserNftBalance(address)": "bd0a2e1e",
			"getUserNftRecords(address)": "849bbeb0",
			"getUserStakeRecords(address)": "055567f3",
			"init(address,address[5])": "c8430d7b",
			"isValidInviter(address)": "3cae51dc",
			"lastNftIndex(address)": "5960e6e2",
			"lastStakeIndex(address)": "c5a065c4",
			"marketingAddrA()": "b27c9eb8",
			"marketingAddrB()": "30fb0bd5",
			"marketingAddrC()": "513076f0",
			"minAmount()": "9b2cb5d8",
			"mintNFT(uint256)": "92642744",
			"nftPrice()": "0d39fc81",
			"nftRecord(address,uint256)": "02c3a9d0",
			"owner()": "8da5cb5b",
			"ratios(uint256)": "771dc86a",
			"renounceOwnership()": "715018a6",
			"rescueETH(address,uint256)": "099a04e5",
			"rescueToken(address,address,uint256)": "e5711e8b",
			"setBasePrice(uint256)": "de4b3262",
			"setMarketingAddr(address,address,address)": "8a3d9075",
			"setMinAmount(uint256)": "897b0637",
			"setNftPrice(uint256)": "7d9a7a4c",
			"setRatios(uint256[5])": "959028cd",
			"setStartTime(uint256)": "3e0a322d",
			"setTokenRatio(uint256)": "e38e91f9",
			"setTokenVault(address,address)": "60a62f35",
			"stake(uint256)": "a694fc3a",
			"stakeRecord(address,uint256)": "1c10cddb",
			"startTime()": "78e97925",
			"tokenPrice()": "7ff9b596",
			"tokenRatio()": "06f837d3",
			"tokenVault1()": "5cb628fa",
			"tokenVault2()": "63034ef1",
			"totalStakedNet()": "4b45e561",
			"transferOwnership(address)": "f2fde38b",
			"userInfo(address)": "1959a002"
		}
	},
	"abi": [
		{
			"anonymous": false,
			"inputs": [
				{
					"indexed": true,
					"internalType": "address",
					"name": "previousOwner",
					"type": "address"
				},
				{
					"indexed": true,
					"internalType": "address",
					"name": "newOwner",
					"type": "address"
				}
			],
			"name": "OwnershipTransferred",
			"type": "event"
		},
		{
			"inputs": [
				{
					"internalType": "uint256",
					"name": "",
					"type": "uint256"
				}
			],
			"name": "NFTS",
			"outputs": [
				{
					"internalType": "address",
					"name": "",
					"type": "address"
				}
			],
			"stateMutability": "view",
			"type": "function"
		},
		{
			"inputs": [],
			"name": "ROUTER",
			"outputs": [
				{
					"internalType": "address",
					"name": "",
					"type": "address"
				}
			],
			"stateMutability": "view",
			"type": "function"
		},
		{
			"inputs": [],
			"name": "TOKEN",
			"outputs": [
				{
					"internalType": "address",
					"name": "",
					"type": "address"
				}
			],
			"stateMutability": "view",
			"type": "function"
		},
		{
			"inputs": [],
			"name": "USDT",
			"outputs": [
				{
					"internalType": "address",
					"name": "",
					"type": "address"
				}
			],
			"stateMutability": "view",
			"type": "function"
		},
		{
			"inputs": [],
			"name": "basePrice",
			"outputs": [
				{
					"internalType": "uint256",
					"name": "",
					"type": "uint256"
				}
			],
			"stateMutability": "view",
			"type": "function"
		},
		{
			"inputs": [
				{
					"internalType": "address",
					"name": "inviter",
					"type": "address"
				}
			],
			"name": "bind",
			"outputs": [],
			"stateMutability": "nonpayable",
			"type": "function"
		},
		{
			"inputs": [],
			"name": "claimToken",
			"outputs": [],
			"stateMutability": "nonpayable",
			"type": "function"
		},
		{
			"inputs": [],
			"name": "claimUsdt",
			"outputs": [],
			"stateMutability": "nonpayable",
			"type": "function"
		},
		{
			"inputs": [
				{
					"internalType": "address",
					"name": "user",
					"type": "address"
				}
			],
			"name": "equalToken",
			"outputs": [
				{
					"internalType": "uint256",
					"name": "",
					"type": "uint256"
				}
			],
			"stateMutability": "view",
			"type": "function"
		},
		{
			"inputs": [],
			"name": "equalTokenPerNFT",
			"outputs": [
				{
					"internalType": "uint256",
					"name": "",
					"type": "uint256"
				}
			],
			"stateMutability": "view",
			"type": "function"
		},
		{
			"inputs": [],
			"name": "firstAddr",
			"outputs": [
				{
					"internalType": "address",
					"name": "",
					"type": "address"
				}
			],
			"stateMutability": "view",
			"type": "function"
		},
		{
			"inputs": [
				{
					"internalType": "address",
					"name": "user",
					"type": "address"
				}
			],
			"name": "getUserNftBalance",
			"outputs": [
				{
					"internalType": "uint256",
					"name": "",
					"type": "uint256"
				}
			],
			"stateMutability": "view",
			"type": "function"
		},
		{
			"inputs": [
				{
					"internalType": "address",
					"name": "user",
					"type": "address"
				}
			],
			"name": "getUserNftRecords",
			"outputs": [
				{
					"components": [
						{
							"internalType": "uint256",
							"name": "time",
							"type": "uint256"
						},
						{
							"internalType": "uint256",
							"name": "amount",
							"type": "uint256"
						}
					],
					"internalType": "struct Pool.Record[10]",
					"name": "",
					"type": "tuple[10]"
				}
			],
			"stateMutability": "view",
			"type": "function"
		},
		{
			"inputs": [
				{
					"internalType": "address",
					"name": "user",
					"type": "address"
				}
			],
			"name": "getUserStakeRecords",
			"outputs": [
				{
					"components": [
						{
							"internalType": "uint256",
							"name": "time",
							"type": "uint256"
						},
						{
							"internalType": "uint256",
							"name": "amount",
							"type": "uint256"
						}
					],
					"internalType": "struct Pool.Record[10]",
					"name": "",
					"type": "tuple[10]"
				}
			],
			"stateMutability": "view",
			"type": "function"
		},
		{
			"inputs": [
				{
					"internalType": "address",
					"name": "token",
					"type": "address"
				},
				{
					"internalType": "address[5]",
					"name": "nfts",
					"type": "address[5]"
				}
			],
			"name": "init",
			"outputs": [],
			"stateMutability": "nonpayable",
			"type": "function"
		},
		{
			"inputs": [
				{
					"internalType": "address",
					"name": "inviter",
					"type": "address"
				}
			],
			"name": "isValidInviter",
			"outputs": [
				{
					"internalType": "bool",
					"name": "",
					"type": "bool"
				}
			],
			"stateMutability": "view",
			"type": "function"
		},
		{
			"inputs": [
				{
					"internalType": "address",
					"name": "",
					"type": "address"
				}
			],
			"name": "lastNftIndex",
			"outputs": [
				{
					"internalType": "uint256",
					"name": "",
					"type": "uint256"
				}
			],
			"stateMutability": "view",
			"type": "function"
		},
		{
			"inputs": [
				{
					"internalType": "address",
					"name": "",
					"type": "address"
				}
			],
			"name": "lastStakeIndex",
			"outputs": [
				{
					"internalType": "uint256",
					"name": "",
					"type": "uint256"
				}
			],
			"stateMutability": "view",
			"type": "function"
		},
		{
			"inputs": [],
			"name": "marketingAddrA",
			"outputs": [
				{
					"internalType": "address",
					"name": "",
					"type": "address"
				}
			],
			"stateMutability": "view",
			"type": "function"
		},
		{
			"inputs": [],
			"name": "marketingAddrB",
			"outputs": [
				{
					"internalType": "address",
					"name": "",
					"type": "address"
				}
			],
			"stateMutability": "view",
			"type": "function"
		},
		{
			"inputs": [],
			"name": "marketingAddrC",
			"outputs": [
				{
					"internalType": "address",
					"name": "",
					"type": "address"
				}
			],
			"stateMutability": "view",
			"type": "function"
		},
		{
			"inputs": [],
			"name": "minAmount",
			"outputs": [
				{
					"internalType": "uint256",
					"name": "",
					"type": "uint256"
				}
			],
			"stateMutability": "view",
			"type": "function"
		},
		{
			"inputs": [
				{
					"internalType": "uint256",
					"name": "num",
					"type": "uint256"
				}
			],
			"name": "mintNFT",
			"outputs": [],
			"stateMutability": "nonpayable",
			"type": "function"
		},
		{
			"inputs": [],
			"name": "nftPrice",
			"outputs": [
				{
					"internalType": "uint256",
					"name": "",
					"type": "uint256"
				}
			],
			"stateMutability": "view",
			"type": "function"
		},
		{
			"inputs": [
				{
					"internalType": "address",
					"name": "",
					"type": "address"
				},
				{
					"internalType": "uint256",
					"name": "",
					"type": "uint256"
				}
			],
			"name": "nftRecord",
			"outputs": [
				{
					"internalType": "uint256",
					"name": "time",
					"type": "uint256"
				},
				{
					"internalType": "uint256",
					"name": "amount",
					"type": "uint256"
				}
			],
			"stateMutability": "view",
			"type": "function"
		},
		{
			"inputs": [],
			"name": "owner",
			"outputs": [
				{
					"internalType": "address",
					"name": "",
					"type": "address"
				}
			],
			"stateMutability": "view",
			"type": "function"
		},
		{
			"inputs": [
				{
					"internalType": "uint256",
					"name": "",
					"type": "uint256"
				}
			],
			"name": "ratios",
			"outputs": [
				{
					"internalType": "uint256",
					"name": "",
					"type": "uint256"
				}
			],
			"stateMutability": "view",
			"type": "function"
		},
		{
			"inputs": [],
			"name": "renounceOwnership",
			"outputs": [],
			"stateMutability": "nonpayable",
			"type": "function"
		},
		{
			"inputs": [
				{
					"internalType": "address",
					"name": "to",
					"type": "address"
				},
				{
					"internalType": "uint256",
					"name": "amount",
					"type": "uint256"
				}
			],
			"name": "rescueETH",
			"outputs": [],
			"stateMutability": "nonpayable",
			"type": "function"
		},
		{
			"inputs": [
				{
					"internalType": "address",
					"name": "token",
					"type": "address"
				},
				{
					"internalType": "address",
					"name": "to",
					"type": "address"
				},
				{
					"internalType": "uint256",
					"name": "amount",
					"type": "uint256"
				}
			],
			"name": "rescueToken",
			"outputs": [],
			"stateMutability": "nonpayable",
			"type": "function"
		},
		{
			"inputs": [
				{
					"internalType": "uint256",
					"name": "_basePrice",
					"type": "uint256"
				}
			],
			"name": "setBasePrice",
			"outputs": [],
			"stateMutability": "nonpayable",
			"type": "function"
		},
		{
			"inputs": [
				{
					"internalType": "address",
					"name": "a",
					"type": "address"
				},
				{
					"internalType": "address",
					"name": "b",
					"type": "address"
				},
				{
					"internalType": "address",
					"name": "c",
					"type": "address"
				}
			],
			"name": "setMarketingAddr",
			"outputs": [],
			"stateMutability": "nonpayable",
			"type": "function"
		},
		{
			"inputs": [
				{
					"internalType": "uint256",
					"name": "_minAmount",
					"type": "uint256"
				}
			],
			"name": "setMinAmount",
			"outputs": [],
			"stateMutability": "nonpayable",
			"type": "function"
		},
		{
			"inputs": [
				{
					"internalType": "uint256",
					"name": "_nftPrice",
					"type": "uint256"
				}
			],
			"name": "setNftPrice",
			"outputs": [],
			"stateMutability": "nonpayable",
			"type": "function"
		},
		{
			"inputs": [
				{
					"internalType": "uint256[5]",
					"name": "_ratios",
					"type": "uint256[5]"
				}
			],
			"name": "setRatios",
			"outputs": [],
			"stateMutability": "nonpayable",
			"type": "function"
		},
		{
			"inputs": [
				{
					"internalType": "uint256",
					"name": "_timeStamp",
					"type": "uint256"
				}
			],
			"name": "setStartTime",
			"outputs": [],
			"stateMutability": "nonpayable",
			"type": "function"
		},
		{
			"inputs": [
				{
					"internalType": "uint256",
					"name": "_tokenRatio",
					"type": "uint256"
				}
			],
			"name": "setTokenRatio",
			"outputs": [],
			"stateMutability": "nonpayable",
			"type": "function"
		},
		{
			"inputs": [
				{
					"internalType": "address",
					"name": "_tokenVault1",
					"type": "address"
				},
				{
					"internalType": "address",
					"name": "_tokenVault2",
					"type": "address"
				}
			],
			"name": "setTokenVault",
			"outputs": [],
			"stateMutability": "nonpayable",
			"type": "function"
		},
		{
			"inputs": [
				{
					"internalType": "uint256",
					"name": "usdtAmount",
					"type": "uint256"
				}
			],
			"name": "stake",
			"outputs": [],
			"stateMutability": "nonpayable",
			"type": "function"
		},
		{
			"inputs": [
				{
					"internalType": "address",
					"name": "",
					"type": "address"
				},
				{
					"internalType": "uint256",
					"name": "",
					"type": "uint256"
				}
			],
			"name": "stakeRecord",
			"outputs": [
				{
					"internalType": "uint256",
					"name": "time",
					"type": "uint256"
				},
				{
					"internalType": "uint256",
					"name": "amount",
					"type": "uint256"
				}
			],
			"stateMutability": "view",
			"type": "function"
		},
		{
			"inputs": [],
			"name": "startTime",
			"outputs": [
				{
					"internalType": "uint256",
					"name": "",
					"type": "uint256"
				}
			],
			"stateMutability": "view",
			"type": "function"
		},
		{
			"inputs": [],
			"name": "tokenPrice",
			"outputs": [
				{
					"internalType": "uint256",
					"name": "",
					"type": "uint256"
				}
			],
			"stateMutability": "view",
			"type": "function"
		},
		{
			"inputs": [],
			"name": "tokenRatio",
			"outputs": [
				{
					"internalType": "uint256",
					"name": "",
					"type": "uint256"
				}
			],
			"stateMutability": "view",
			"type": "function"
		},
		{
			"inputs": [],
			"name": "tokenVault1",
			"outputs": [
				{
					"internalType": "address",
					"name": "",
					"type": "address"
				}
			],
			"stateMutability": "view",
			"type": "function"
		},
		{
			"inputs": [],
			"name": "tokenVault2",
			"outputs": [
				{
					"internalType": "address",
					"name": "",
					"type": "address"
				}
			],
			"stateMutability": "view",
			"type": "function"
		},
		{
			"inputs": [],
			"name": "totalStakedNet",
			"outputs": [
				{
					"internalType": "uint256",
					"name": "",
					"type": "uint256"
				}
			],
			"stateMutability": "view",
			"type": "function"
		},
		{
			"inputs": [
				{
					"internalType": "address",
					"name": "newOwner",
					"type": "address"
				}
			],
			"name": "transferOwnership",
			"outputs": [],
			"stateMutability": "nonpayable",
			"type": "function"
		},
		{
			"inputs": [
				{
					"internalType": "address",
					"name": "",
					"type": "address"
				}
			],
			"name": "userInfo",
			"outputs": [
				{
					"internalType": "address",
					"name": "inviter",
					"type": "address"
				},
				{
					"internalType": "uint256",
					"name": "score",
					"type": "uint256"
				},
				{
					"internalType": "uint256",
					"name": "amountIn",
					"type": "uint256"
				},
				{
					"internalType": "uint256",
					"name": "refRewards",
					"type": "uint256"
				},
				{
					"internalType": "uint256",
					"name": "rewardsForUSDT",
					"type": "uint256"
				},
				{
					"internalType": "uint256",
					"name": "rewardsForToken",
					"type": "uint256"
				},
				{
					"internalType": "uint256",
					"name": "realizedRewards",
					"type": "uint256"
				},
				{
					"internalType": "uint256",
					"name": "rewardNftNums",
					"type": "uint256"
				},
				{
					"internalType": "uint256",
					"name": "mintNftNums",
					"type": "uint256"
				},
				{
					"internalType": "uint256",
					"name": "directReferralNum",
					"type": "uint256"
				}
			],
			"stateMutability": "view",
			"type": "function"
		}
	]
}